:020000040000FA
:060000000000C2EF06F053
:080D700000000000000000007B
:100D8000C0EF06F0F29E400EB1EC07F0300ECD6ED3
:100D9000CE6ACF6A9E90CD8004009EB017EF07F018
:100DA0009EAACCEF06F0AE50F00AD8B4DAEF06F007
:100DB00017EF07F0A00EBFEC07F0B9EC07F0226EBA
:100DC000A00EBFEC07F02250A10AD8B420EF07F024
:100DD0002250A20AD8B434EF07F02250A30AD8B4A4
:100DE0003CEF07F02250A40AD8B466EF07F0225077
:100DF000A50AD8B47DEF07F02250FF0AD8B417EF48
:100E000007F02250F10AD8B483EF07F02250F20A1B
:100E1000D8B48EEF07F02250A60AD8B46CEF07F0D2
:100E20002250A70AD8B442EF07F0DDEF06F0CD6AF2
:100E3000C19AC19CAB6AAC6A9E6AAF6AB8EF06F011
:100E4000A3EC07F0EAEC07F0276EB9EC07F0246E8C
:100E5000271AD8B430EF07F0F1EC07F0EAEC07F00E
:100E6000BFEC07F0DDEF06F0A3EC07F0EAEC07F0CB
:100E7000BFEC07F0DDEF06F0A3EC07F094EC07F011
:100E800044EF07F0A3EC07F0000EEA6E280EE96EBF
:100E9000080E216EB9EC07F0EE6E212E4AEF07F036
:100EA000000EEA6E280EE96E080E216EC5EC07F002
:100EB000EE50F56E0D00212E58EF07F0C5EC07F04F
:100EC000D1EC07F070EF07F0DDEF06F0A3EC07F0D0
:100ED00094EC07F070EF07F0A3EC07F070EF07F069
:100EE000C5EC07F0040E216ED8EC07F0AAEC07F071
:100EF000212E74EF07F0DDEF06F0A3EC07F0E1EC34
:100F000007F0DDEF06F0150EBFEC07F01F0EBFEC8B
:100F100007F0200EBFEC07F0DDEF06F0B9EC07F0AC
:100F2000B1EC07F0DDEF06F02550D8A4A2EF07F0F2
:100F3000F80E2624D8B0A2EF07F02650700F266EC8
:100F40000D0E256E1200B9EC07F0266EB9EC07F015
:100F5000256E12002450BFEC07F02350BFEC07F0C1
:100F60001200AF6EC18AC18CA60EAC6EAB8EAB8880
:100F7000120004009EAAB9EF07F0AE501200040060
:100F80009EA8BFEF07F0AD6E1200F86A2550F76E0D
:100F90002650F66E1200550EA76EAA0EA76EA682F8
:100FA0001200840EA66ECBEC07F00000A69412008F
:100FB000A66AA68E0900F550246E0900F550236E2E
:100FC0001200C5EC07F0940EA66ECBEC07F0000003
:100FD000A69412002650A96EA66AA69EA680A850C6
:100FE00012002650A96E2450A86EA66AA69EA6845A
:0E0FF000CBEC07F0A6B2FAEF07F0A6941200C1
:020000040030CA
:08000000FFF2FEEEFFFFFBFF23
:00000001FF
