:020000040000FA
:0400000082EF16F085
:082CF0000000000000000000DC
:102D000080EF16F0F29E400E7EEC17F084EC17F088
:102D1000F00AD8B48EEF16F0CBEF16F0A00E9BECB5
:102D200017F095EC17F0226EA00E9BEC17F02250D6
:102D3000A10AD8B4D2EF16F02250A20AD8B4E6EF16
:102D400016F02250A30AD8B4EEEF16F02250A40ACF
:102D5000D8B418EF17F02250A50AD8B42FEF17F007
:102D60002250FF0AD8B4CBEF16F02250F10AD8B4A3
:102D700035EF17F02250F20AD8B452EF17F0225074
:102D8000A60AD8B41EEF17F02250A70AD8B4F4EF61
:102D900016F091EF16F0CD6AAB6AAC6A9E6AAF6A24
:102DA00078EF16F06DEC17F0C7EC17F0286E95EC85
:102DB00017F0246E281AD8B4E2EF16F0CEEC17F014
:102DC000C7EC17F09BEC17F091EF16F06DEC17F0D5
:102DD000C7EC17F09BEC17F091EF16F06DEC17F0C5
:102DE00058EC17F0F6EF16F06DEC17F0000EEA6EE7
:102DF000290EE96E080E216E95EC17F0EE6E212E6D
:102E0000FCEF16F0000EEA6E290EE96E080E216E38
:102E1000A1EC17F0EE50F56E0D00212E0AEF17F021
:102E2000A1EC17F0AEEC17F022EF17F091EF16F0CF
:102E30006DEC17F058EC17F022EF17F06DEC17F06F
:102E400022EF17F0A1EC17F0040E216EB5EC17F08D
:102E500077EC17F0212E26EF17F091EF16F06DECBE
:102E600017F0BEEC17F091EF16F0220E9BEC17F066
:102E70001F0E9BEC17F04E0E9BEC17F0000E9BEC18
:102E800017F0300E9BEC17F0000E9BEC17F0000EC5
:102E90009BEC17F0030E9BEC17F0080E9BEC17F061
:102EA00091EF16F095EC17F07EEC17F091EF16F01D
:102EB0002750D8A46CEF17F02550D8A46CEF17F06A
:102EC000F80E2624D8B06CEF17F02650F00F266EBF
:102ED0002C0E256E000E276E120095EC17F0266E54
:102EE00095EC17F0256E95EC17F0276E1200245024
:102EF0009BEC17F023509BEC17F01200AF6EA60E60
:102F0000AC6EAB8EAB881200300ECD6ECE6ACF6A3F
:102F10009E90CD8004009EB093EF17F09EAA8AEF9A
:102F200017F0AE501200CD90000C04009EAA95EF51
:102F300017F0AE50120004009EA89BEF17F0AD6E84
:102F400012002750F86E2550F76E2650F66E1200CC
:102F5000550EA76EAA0EA76EA6821200840EA66E4C
:102F6000A8EC17F00000A6941200A66AA68E09002D
:102F7000F550246E0900F550236E1200A1EC17F0F5
:102F8000940EA66EA8EC17F00000A694120026502E
:102F9000A96EA66AA69EA680A85012002650A96E09
:102FA0002450A86EA66AA69EA684A8EC17F0A6B226
:082FB000D7EF17F0A694120000
:020000040030CA
:04000000FFFAFFFF05
:02000600FBFFFE
:00000001FF
