:020000040000FA
:0400000082EF5EF03D
:08BCF00000000000000000004C
:10BD000080EF5EF0F29E0C0E7EEC5FF084EC5FF054
:10BD1000F00AD8B48EEF5EF0CBEF5EF0A00E9BEC95
:10BD20005FF095EC5FF0226EA00E9BEC5FF022506E
:10BD3000A10AD8B4D2EF5EF02250A20AD8B4E6EF3E
:10BD40005EF02250A30AD8B4EEEF5EF02250A40AAF
:10BD5000D8B418EF5FF02250A50AD8B42FEF5FF0E7
:10BD60002250FF0AD8B4CBEF5EF02250F10AD8B4CB
:10BD700035EF5FF02250F20AD8B452EF5FF0225054
:10BD8000A60AD8B41EEF5FF02250A70AD8B4F4EF89
:10BD90005EF091EF5EF0CD6AAB6AAC6A9E6AAF6A04
:10BDA00078EF5EF06DEC5FF0C7EC5FF0286E95EC1D
:10BDB0005FF0246E281AD8B4E2EF5EF0D0EC5FF0AA
:10BDC000C7EC5FF09BEC5FF091EF5EF06DEC5FF025
:10BDD000C7EC5FF09BEC5FF091EF5EF06DEC5FF015
:10BDE00058EC5FF0F6EF5EF06DEC5FF0000EEA6E7F
:10BDF000290EE96E080E216E95EC5FF0EE6E212E95
:10BE0000FCEF5EF0000EEA6E290EE96E080E216E60
:10BE1000A1EC5FF0EE50F56E0D00212E0AEF5FF001
:10BE2000A1EC5FF0AEEC5FF022EF5FF091EF5EF01F
:10BE30006DEC5FF058EC5FF022EF5FF06DEC5FF0BF
:10BE400022EF5FF0A1EC5FF0040E216EB5EC5FF025
:10BE500077EC5FF0212E26EF5FF091EF5EF06DEC56
:10BE60005FF0BEEC5FF091EF5EF0220E9BEC5FF0B6
:10BE70000F0E9BEC5FF05C0E9BEC5FF0000E9BECFA
:10BE80005FF0C00E9BEC5FF0000E9BEC5FF0000ECD
:10BE90009BEC5FF0030E9BEC5FF0080E9BEC5FF0F9
:10BEA00091EF5EF095EC5FF07EEC5FF091EF5EF06D
:10BEB0002750D8A46CEF5FF02550D8A46CEF5FF04A
:10BEC000F80E2624D8B06CEF5FF02650F00F266EE7
:10BED000BC0E256E000E276E120095EC5FF0266EEC
:10BEE00095EC5FF0256E95EC5FF0276E1200245004
:10BEF0009BEC5FF023509BEC5FF01200AF6EA60E40
:10BF0000AC6EAB8EAB881200300ECD6ECE6ACF6AAF
:10BF10009E90CD8004009EB093EF5FF09EAA8AEFC2
:10BF20005FF0AE501200CD90000C04009EAA95EF79
:10BF30005FF0AE50120004009EA89BEF5FF0AD6E64
:10BF400012002750F86E2550F76E2650F66E12003C
:10BF5000550EA76EAA0EA76EA6821200840EA66EBC
:10BF6000A8EC5FF00000A6941200A66AA68E090055
:10BF7000F550246E0900F550236E1200A1EC5FF01D
:10BF8000940EA66EA8EC5FF00000A6941200255057
:10BF9000AA6E2650A96EA66AA69EA680A850120078
:10BFA0002550AA6E2650A96E2450A86EA66AA69E99
:10BFB000A684A8EC5FF0A6B2DBEF5FF0A6941200B7
:020000040030CA
:04000000FFF2FFEF1D
:02000600FBFFFE
:00000001FF
