:020000040000FA
:06000000000082EF5EF03B
:08BCF00000000000000000004C
:10BD000080EF5EF0F29E400E7BEC5FF081EC5FF026
:10BD1000F00AD8B48EEF5EF0CBEF5EF0A00E98EC98
:10BD20005FF092EC5FF0226EA00E98EC5FF0225074
:10BD3000A10AD8B4D2EF5EF02250A20AD8B4E6EF3E
:10BD40005EF02250A30AD8B4EEEF5EF02250A40AAF
:10BD5000D8B418EF5FF02250A50AD8B42FEF5FF0E7
:10BD60002250FF0AD8B4CBEF5EF02250F10AD8B4CB
:10BD700035EF5FF02250F20AD8B44FEF5FF0225057
:10BD8000A60AD8B41EEF5FF02250A70AD8B4F4EF89
:10BD90005EF091EF5EF0CD6AAB6AAC6A9E6AAF6A04
:10BDA00078EF5EF06AEC5FF0C4EC5FF0286E92EC26
:10BDB0005FF0246E281AD8B4E2EF5EF0CDEC5FF0AD
:10BDC000C4EC5FF098EC5FF091EF5EF06AEC5FF02E
:10BDD000C4EC5FF098EC5FF091EF5EF06AEC5FF01E
:10BDE00055EC5FF0F6EF5EF06AEC5FF0000EEA6E85
:10BDF000290EE96E080E216E92EC5FF0EE6E212E98
:10BE0000FCEF5EF0000EEA6E290EE96E080E216E60
:10BE10009EEC5FF0EE50F56E0D00212E0AEF5FF004
:10BE20009EEC5FF0ABEC5FF022EF5FF091EF5EF025
:10BE30006AEC5FF055EC5FF022EF5FF06AEC5FF0C8
:10BE400022EF5FF09EEC5FF0040E216EB2EC5FF02B
:10BE500074EC5FF0212E26EF5FF091EF5EF06AEC5C
:10BE60005FF0BBEC5FF091EF5EF0210E98EC5FF0BD
:10BE70001F0E98EC5FF0390E98EC5FF0000E98EC16
:10BE80005FF0C00E98EC5FF0000E98EC5FF0000ED3
:10BE900098EC5FF0030E98EC5FF091EF5EF092EC9F
:10BEA0005FF07BEC5FF091EF5EF02750D8A469EF74
:10BEB0005FF02550D8A469EF5FF0F80E2624D8B0C3
:10BEC00069EF5FF02650F00F266EBC0E256E000E57
:10BED000276E120092EC5FF0266E92EC5FF0256EFA
:10BEE00092EC5FF0276E1200245098EC5FF0235024
:10BEF00098EC5FF01200AF6EA60EAC6EAB8EAB8806
:10BF00001200300ECD6ECE6ACF6A9E90CD800400B6
:10BF10009EB090EF5FF09EAA87EF5FF0AE501200E8
:10BF2000CD90000C04009EAA92EF5FF0AE5012007C
:10BF300004009EA898EF5FF0AD6E12002750F86ED7
:10BF40002550F76E2650F66E1200550EA76EAA0EFB
:10BF5000A76EA6821200840EA66EA5EC5FF000000C
:10BF6000A6941200A66AA68E0900F550246E090058
:10BF7000F550236E12009EEC5FF0940EA66EA5ECB9
:10BF80005FF00000A69412002550AA6E2650A96EFC
:10BF9000A66AA69EA680A85012002550AA6E26501A
:10BFA000A96E2450A86EA66AA69EA684A5EC5FF092
:0ABFB000A6B2D8EF5FF0A6941200CD
:020000040030CA
:08000000FFF2FEEEFFFEFBFF24
:00000001FF
