:020000040000FA
:0400000082EFBEF0DD
:020000040001F9
:087CF00000000000000000008C
:107D000080EFBEF0F29E0C0E7EECBFF084ECBFF074
:107D1000F00AD8B48EEFBEF0CBEFBEF0A00E9BEC15
:107D2000BFF095ECBFF0226EA00E9BECBFF022508E
:107D3000A10AD8B4D2EFBEF02250A20AD8B4E6EF1E
:107D4000BEF02250A30AD8B4EEEFBEF02250A40A2F
:107D5000D8B418EFBFF02250A50AD8B42FEFBFF067
:107D60002250FF0AD8B4CBEFBEF02250F10AD8B4AB
:107D700035EFBFF02250F20AD8B452EFBFF02250D4
:107D8000A60AD8B41EEFBFF02250A70AD8B4F4EF69
:107D9000BEF091EFBEF0CD6AAB6AAC6A9E6AAF6A84
:107DA00078EFBEF06DECBFF0C7ECBFF0286E95EC3D
:107DB000BFF0246E281AD8B4E2EFBEF0D0ECBFF0CA
:107DC000C7ECBFF09BECBFF091EFBEF06DECBFF0E5
:107DD000C7ECBFF09BECBFF091EFBEF06DECBFF0D5
:107DE00058ECBFF0F6EFBEF06DECBFF0000EEA6E9F
:107DF000290EE96E080E216E95ECBFF0EE6E212E75
:107E0000FCEFBEF0000EEA6E290EE96E080E216E40
:107E1000A1ECBFF0EE50F56E0D00212E0AEFBFF081
:107E2000A1ECBFF0AEECBFF022EFBFF091EFBEF0DF
:107E30006DECBFF058ECBFF022EFBFF06DECBFF07F
:107E400022EFBFF0A1ECBFF0040E216EB5ECBFF045
:107E500077ECBFF0212E26EFBFF091EFBEF06DEC76
:107E6000BFF0BEECBFF091EFBEF0220E9BECBFF076
:107E70000F0E9BECBFF03E0E9BECBFF0000E9BEC98
:107E8000BFF0800E9BECBFF0010E9BECBFF0000E2C
:107E90009BECBFF0030E9BECBFF0080E9BECBFF019
:107EA00091EFBEF095ECBFF07EECBFF091EFBEF02D
:107EB0002750D8A46CEFBFF02550D8A46CEFBFF0CA
:107EC000F80E2624D8B06CEFBFF02650F00F266EC7
:107ED0007C0E256E010E276E120095ECBFF0266E0B
:107EE00095ECBFF0256E95ECBFF0276E1200245084
:107EF0009BECBFF023509BECBFF01200AF6EA60EC0
:107F0000AC6EAB8EAB881200300ECD6ECE6ACF6AEF
:107F10009E90CD8004009EB093EFBFF09EAA8AEFA2
:107F2000BFF0AE501200CD90000C04009EAA95EF59
:107F3000BFF0AE50120004009EA89BEFBFF0AD6EE4
:107F400012002750F86E2550F76E2650F66E12007C
:107F5000550EA76EAA0EA76EA6821200840EA66EFC
:107F6000A8ECBFF00000A6941200A66AA68E090035
:107F7000F550246E0900F550236E1200A1ECBFF0FD
:107F8000940EA66EA8ECBFF00000A6941200255037
:107F9000AA6E2650A96EA66AA69EA680A8501200B8
:107FA0002550AA6E2650A96E2450A86EA66AA69ED9
:107FB000A684A8ECBFF0A6B2DBEFBFF0A694120037
:020000040030CA
:08000000FFF2FFEEFFFFBBFF62
:00000001FF
