:020000040000FA
:0400000082EF2EF06D
:085CF0000000000000000000AC
:105D000080EF2EF0F29E9B0E7EEC2FF084EC2FF0B5
:105D1000F00AD8B48EEF2EF0CBEF2EF0A00E9BEC55
:105D20002FF095EC2FF0226EA00E9BEC2FF022505E
:105D3000A10AD8B4D2EF2EF02250A20AD8B4E6EFCE
:105D40002EF02250A30AD8B4EEEF2EF02250A40A6F
:105D5000D8B418EF2FF02250A50AD8B42FEF2FF0A7
:105D60002250FF0AD8B4CBEF2EF02250F10AD8B45B
:105D700035EF2FF02250F20AD8B452EF2FF0225014
:105D8000A60AD8B41EEF2FF02250A70AD8B4F4EF19
:105D90002EF091EF2EF0CD6AAB6AAC6A9E6AAF6AC4
:105DA00078EF2EF06DEC2FF0C7EC2FF0286E95EC0D
:105DB0002FF0246E281AD8B4E2EF2EF0CEEC2FF09C
:105DC000C7EC2FF09BEC2FF091EF2EF06DEC2FF045
:105DD000C7EC2FF09BEC2FF091EF2EF06DEC2FF035
:105DE00058EC2FF0F6EF2EF06DEC2FF0000EEA6E6F
:105DF000290EE96E080E216E95EC2FF0EE6E212E25
:105E0000FCEF2EF0000EEA6E290EE96E080E216EF0
:105E1000A1EC2FF0EE50F56E0D00212E0AEF2FF0C1
:105E2000A1EC2FF0AEEC2FF022EF2FF091EF2EF03F
:105E30006DEC2FF058EC2FF022EF2FF06DEC2FF0DF
:105E400022EF2FF0A1EC2FF0040E216EB5EC2FF015
:105E500077EC2FF0212E26EF2FF091EF2EF06DEC46
:105E60002FF0BEEC2FF091EF2EF0220E9BEC2FF0D6
:105E70007F0E9BEC2FF0440E9BEC2FF0000E9BEC62
:105E80002FF0600E9BEC2FF0000E9BEC2FF0000E1D
:105E90009BEC2FF0030E9BEC2FF0080E9BEC2FF0E9
:105EA00091EF2EF095EC2FF07EEC2FF091EF2EF08D
:105EB0002750D8A46CEF2FF02550D8A46CEF2FF00A
:105EC000F80E2624D8B06CEF2FF02650F00F266E77
:105ED0005C0E256E000E276E120095EC2FF0266EDC
:105EE00095EC2FF0256E95EC2FF0276E12002450C4
:105EF0009BEC2FF023509BEC2FF01200AF6EA60E00
:105F0000AC6EAB8EAB881200300ECD6ECE6ACF6A0F
:105F10009E90CD8004009EB093EF2FF09EAA8AEF52
:105F20002FF0AE501200CD90000C04009EAA95EF09
:105F30002FF0AE50120004009EA89BEF2FF0AD6E24
:105F400012002750F86E2550F76E2650F66E12009C
:105F5000550EA76EAA0EA76EA6821200840EA66E1C
:105F6000A8EC2FF00000A6941200A66AA68E0900E5
:105F7000F550246E0900F550236E1200A1EC2FF0AD
:105F8000940EA66EA8EC2FF00000A69412002650E6
:105F9000A96EA66AA69EA680A85012002650A96ED9
:105FA0002450A86EA66AA69EA684A8EC2FF0A6B2DE
:085FB000D7EF2FF0A6941200B8
:020000040030CA
:08000000E0FEFFEEFFFD9BFF97
:00000001FF
