:020000040000FA
:04000000E8EF02F033
:08000800126A166A156E020E61
:1000100003D0156E030E00D0076E1650125C02E17D
:100020001550115C040ED8B0010ED8B4020E07149E
:10003000D8A4010E1200800E016EFE0EF2EC00F04C
:10004000010EF2EC00F0750E126E300E32EF01F080
:10005000016A018E206EFE0EF2EC00F02050F2EFED
:1000600000F0056A196E1A6A00960550D8B4008629
:10007000050E046E270E166E100E0CD8030E166EAB
:10008000E80E08D8166A640E05D8166A0A0E02D859
:10009000195008D0156E1A50126E1950116EA3EC3B
:1000A00001F01150116E044E0096055003E0045CFF
:1000B000D8B008D01150D8A4009600B603D0300FA5
:1000C000F2EF00F01200196E0450D8B4120019C0FB
:1000D000E9FF1AC0EAFFEF50D8B41200F2EC00F0CA
:1000E000194A1A2A0406F0D7A66AA68E0900F55006
:1000F00002E002D8FBD712001E6E839C839E959C63
:10010000959EF00E95161E5000B2A9EF00F03A0E23
:10011000126E980E32EC01F0330E1D6E2ED8130EB7
:10012000126E880E32EC01F028D8640E31EC01F02A
:1001300024D8640E31EC01F0220E1D6E1ED8280E5C
:1001400007D80C0E05D8060E03D800821E5001D029
:1001500000801D6E00A00BD0839E03080CE30BD81B
:10016000070E126ED00E32EC01F0D8801200008023
:10017000FE0812E0838E1D3A00A00090838CF00EE2
:1001800083161D500F0B8312839C1D3A00B0F5D7C8
:10019000320E31EC01F0D8801E501200ABB2AB9899
:1001A000AB8802C011F006C012F0156A166A000092
:1001B00000D000009EBA13D0E8681526162211223E
:1001C0001222D8A012001548163CF1D73D0E156E2C
:1001D000166AEFD7ABB2AB98AB889EAAFED7AE50EB
:1001E000D880120001BE7CEF00F001A205D001B062
:1001F00003D001B2EE6E1200AA6AA96EA66AA680AA
:10020000A850A94AAA2A1200AA6AA86EA66AA684B9
:10021000550EA76EAA0EA76EA682A6B2FED7A6940A
:10022000A94AAA2A1200F56E0C00F628070B09E16C
:10023000840EA66E550EA76EAA0EA76EA68200D0DB
:10024000A694F64AF72A1200166A156EFF0E1526B6
:10025000162200D0D8A01200030E126EDF0E02D8B4
:10026000F5D7126AE80F116E121EFC0ED8A003D04B
:100270001126D8B0FDD711260000123EF9D711B0D3
:1002800000D011A202D0000000D0120014501C189F
:10029000800BF46E14AE06D0D880000E11561256A4
:1002A000135614561CAE06D0D880000E19561A5696
:1002B0001B561C56156A166A176A186A296A2A6A32
:1002C0002B6A2C6A1C501B101A10191023E0200EE8
:1002D000F36ED890113612361336143629362A3674
:1002E0002B362C361950295C1A502A581B502B5883
:1002F0001C502C5809E31950295E1A502A5A1B50D9
:100300002B5A1C502C5AD8801536163617361836EC
:10031000F32EDFD7F4AE06D0D880000E1556165651
:100320001756185615C011F016C012F017C013F06A
:1003300018C014F029C019F02AC01AF02BC01BF005
:100340002CC01CF012001A6A196A100EF36E1234D7
:1003500019361A361550195C16501A5805E31550FF
:10036000195E16501A5AD88011361236F32EEFD76E
:1003700011501200200E1D6E296A2A6A2B6A2C6AFF
:10038000D89011A00ED0195029261A50D8B01A3C76
:100390002A261B50D8B01B3C2B261C50D8B01C3C26
:1003A0002C262C322B322A322932143213321232BA
:1003B00011321D2EE5D71200A66AA68E0900F5504F
:1003C00002E0EE6EFBD712000EC031F07F0E0D5C26
:1003D000306E3FE30E8E0D6A296A1708306E0BE20D
:1003E000080E302638E30EC00DF00FC00EF010C01E
:1003F0000FF0106A0CD0080E305E08E310C029F030
:100400000FC010F00EC00FF00E6AF5D73026305234
:1004100008E0D8900D320E320F3210322932302ED1
:10042000F8D70DBE18D02FAC0BD029AE09D0103E96
:1004300007D00F3E05D00E3E03D00E2A0DBE0BD0C6
:1004400031AE10D0D880000E10560F560E560D56F5
:1004500009D0000E02D02F82FF0E0D6E0E6E0F6EB1
:10046000106E0D9E105012002020202020202020F1
:1004700000005374617274696E6721005344204414
:10048000657465637465642100004E6F2053442ECB
:100490002E00436865636B696E6720544147000016
:1004A000476F742061206D617463680048697374DC
:1004B0006F727920444F4E4521004E6F204D61747C
:1004C00063680000415454454D5054494E472054F0
:1004D0004F0052454144205441472E2E2E2E0000FD
:1004E0005468616E6B20596F75004E6F20546167C0
:1004F0002044657465637465640046696C65206EAC
:100500006F7420666F756E6400004E6F2035452055
:10051000285E290053746F707065642100004E6F6F
:1005200020334120283A292E2E0053746F707065B5
:100530006421000046696C65206E6F7420666F75DB
:100540006E640000496E697420646F6E652100005E
:100550004E6F20496E69742100004E6F20557365FF
:10056000727300004D616E6167657220446F6E6545
:1005700000004E6F204D616E61676572204869739F
:10058000746F727900004E6F2055736572730000AE
:100590004E6F20557365727320457869737400003F
:1005A000446F6E652055736572730000476F696E06
:1005B0006720746F20736C6565702E2E00004920D3
:1005C0006A75737420776F6B652075702121000048
:1005D000F86A400E2F6E006A060EAF6E200EAC6EEB
:1005E000900EAB6EDEEF11F0010E0201485D0001CE
:1005F000D8A007EF03F00201475101EE41F0E926D0
:10060000000EEA2249C2EFFF000110EF03F000EEF6
:1006100041F002014751E926000EEA2249C2EFFFEC
:100620000001010E0201F66F4729010ED8B44819E6
:100630000001D8A42DEF03F072EC03F04052D8A4CF
:10064000FBD70201F66B486B476B342A000E35224C
:1006500036223722000130EF03F00201474B482BCE
:10066000000112000201486B476B4A530001D8A4F5
:100670004EEF03F0336A00EE41F03350E926000EEE
:10068000EA22EF6A01EE41F03350E926000EEA2239
:10069000EF6A332AD8A4EFD750EF03F0F3EC03F05E
:1006A0001200F0EC09F03C06000E3D5A32C011F089
:1006B0003E5004EC00F02D6E3D503C10D8B463EF7A
:1006C00003F0000E01D0010E2D10D8B4EAD73D5032
:1006D0003C10D8A470EF03F0010E3F6E71EF03F0F1
:1006E0003F6A12000201EE6B010E406E0001D890CD
:1006F000386A3434396E35343A6E36343B6E9494FD
:100700008294580E0201416F3BC042F23AC043F25C
:1007100039C044F238C045F246693E6A3D683C68DB
:100720000001CBEC09F0BDDF010E3F5CD8A49BEFCC
:1007300003F0E7EF03F0FE0E0201466F0001E9EC63
:1007400009F0336A00EE41F03350E926000EEA2248
:10075000EF500201466F0001E9EC09F0332AD8A4FA
:10076000F1D7336A01EE41F03350E926000EEA2258
:10077000EF500201466F0001E9EC09F0332AD8A4DA
:10078000F1D7020146690001E9EC09F0E9EC09F052
:100790003E683D683C68F0EC09F032C0D1F281DF80
:1007A0000F0E0201D117050ED15D0001D8B4DBEFA9
:1007B00003F0E7EF03F0010E3F5CD8A4E2EF03F093
:1007C000E7EF03F0406A94948284F2EF03F094948C
:1007D00082840201EE2B030EEE5D0001D8B0F2EF31
:1007E00003F084D712000201EE6B010E406E00018F
:1007F000D890386A3434396E35343A6E36343B6EBC
:1008000094948294510E0201416F3BC042F23AC06F
:1008100043F239C044F238C045F246690001CBECDE
:1008200009F03E6A3D683C683CDF010E3F5CD8A49D
:100830001CEF04F052EF04F0FE0E3E6E3D683C6883
:1008400030DF010E3F5CD8A428EF04F052EF04F033
:10085000336AF0EC09F000EE41F03350E926000E67
:10086000EA2232C0EFFF332AD8A4F3D7336AF0EC80
:1008700009F001EE41F03350E926000EEA2232C0C1
:10088000EFFF332AD8A4F3D7F0EC09F0F0EC09F02D
:1008900094948284020146690001E9EC09F0406AFF
:1008A0005DEF04F0949482840201EE2B030EEE5D62
:1008B0000001D8B05DEF04F09AD71200010E0201DA
:1008C0004F5D0001D8A07FEF04F002014E5101EE10
:1008D00041F0E926000EEA22EF50776F010E4E2517
:1008E000236E000E4F21246E235001EE41F0E926C5
:1008F000000EEA22EF50786F000190EF04F000EE56
:1009000041F002014E51E926000EEA22EF50776FC6
:100910004E2900EE41F0E926000EEA22EF50786FF2
:1009200000011200020158516725236E59516821B8
:10093000246E000E6921256E000E6A21266E2304A6
:10094000D46F000E2458D56F000E2558D66F000EB8
:100950002658D76F67517925516F68517A21526FA8
:1009600069517B21536F6A517C21546F0001020150
:100970005151D45D5251D5595351D6595451D7592B
:100980005451D719D8B0800A0001D8A839EF05F022
:1009900054C237F053C236F052C235F051C234F06F
:1009A000010E02014A6F00015DDE02014F6B4E6BCA
:1009B0000001020E02014F5D0001D8B030EF05F0DA
:1009C000020167517925086E68517A21096E6951D3
:1009D0007B210A6E6A517C210B6E5151085C525189
:1009E000095853510A5854510B5854510B18D8B048
:1009F000800A0001D8A8FFEF04F0000E01D0010E1C
:100A00002D6ED8900201D835236ED935246E23502F
:100A10007D25086E24507E21096E4FC212F04EC211
:100A200011F009C016F0085009EC00F02D1000017B
:100A3000D8B425EF05F042DF0201785177110001AB
:100A4000D8A425EF05F03EEF05F0020E02014E2777
:100A50000001D8A0ADD702014F2B0001D8A4A8D720
:100A60000201512B000E5223532354230001D8A01E
:100A70007DD7010E02014B6F000112000201675188
:100A8000515D796F685152597A6F695153597B6F33
:100A90006A5154597C6F4FC27EF24EC27DF279C2C8
:100AA000C6F2C56BD8907E31246E7D31236E235003
:100AB000C5272450C623D96BD86B7EC24FF27DC2A6
:100AC0004EF20001020E02014F5D0001D8B084EF2A
:100AD00005F0F4DE0201785177110001D8A477EF18
:100AE00005F00201D84BD92B000179EF05F084EF16
:100AF00005F0020E02014E270001D8A0E2D7020144
:100B00004F2B0001D8A4DDD70201DB6B010EDA6F99
:100B10004B6B000112000201C46B506B0001080E08
:100B20000201505D0001D8B0BBEF05F0010E0201DB
:100B3000C45D010ED8A4000E2D6E02EE91F050514E
:100B4000EB50086E010E0852D8A4000E2D100001C3
:100B5000D8B4B5EF05F0200EF36E02EE91F002016D
:100B60005051F3CFEBFF010EC46F00010201502B77
:100B70000001D8A4D3D70201C46B080E506F000146
:100B80000B0E0201505D0001D8B0EFEF05F0010E31
:100B90000201C45D010ED8A4000E2D6E080E505D3A
:100BA00002EE9AF0EB50086E010E0852D8A4000E27
:100BB0002D100001D8B4E9EF05F0080E0201505DD8
:100BC0009A0FE96E020EEA6AEA22200EEF6E010E1B
:100BD000C46F00010201502B0001D8A4D0D712002D
:100BE0009ADF0201626B616B63516F25236E645162
:100BF0007021246E000E7121256E000E7221266E6A
:100C00002304D46F000E2458D56F000E2558D66FDC
:100C1000000E2658D76F72C254F271C253F270C2DE
:100C200052F26FC251F2000102015151D45D525192
:100C3000D5595351D6595451D7595451D719D8B0C1
:100C4000800A0001D8A887EF07F054C237F053C2DA
:100C500036F052C235F051C234F0010E02014A6F33
:100C6000000132EC03F002014F6B4E6B0001020EEB
:100C700002014F5D0001D8B07EEF07F00201506B1A
:100C80000001200E0201505D0001D8B07AEF06F09D
:100C9000020150514E25D26F000E4F21D36F010E2D
:100CA000D35D0001D8A066EF06F00201D25101EE3B
:100CB00041F0E926000EEA22EFCF08F002EE9EF0A6
:100CC000505108C0EBFF000174EF06F000EE41F058
:100CD0000201D251E926000EEA22EFCF08F002EE1F
:100CE0009EF0505108C0EBFF00010201502B0001A3
:100CF000D8A4C6D70201E0530001D8A498EF06F0AB
:100D000002019E51086E010E0852D8A4000E2D6EED
:100D10009E51086EE50E085C010ED8A4000E2D1041
:100D20000001D8B496EF06F08CEF07F073EF07F0F0
:100D3000010E0201E05D0001D8A4F8EF06F0020107
:100D4000C46B506B0001080E0201505D0001D8B069
:100D5000C6EF06F002EE9EF002015051EB50086E15
:100D600002EE91F05051EB500C6E08500C5C0001FB
:100D7000D8B4C1EF06F0010E0201C46F0001C6EF46
:100D800006F00201502B0001D8A4DCD7080E0201A6
:100D9000506F00010B0E0201505D0001D8B0EEEF64
:100DA00006F002EE9EF002015051EB50086E080E64
:100DB000505D02EE9AF0EB500C6E08500C5C000196
:100DC000D8B4E9EF06F0010E0201C46F0001EEEFA6
:100DD00006F00201502B0001D8A4DBD70201C45356
:100DE0000001D8A4F6EF06F08CEF07F073EF07F0E0
:100DF000020E0201E05D0001D8A473EF07F00201CA
:100E0000A9510C6EF00E0C10086E000E096E082829
:100E100009100001D8B473EF07F002019E51086E6B
:100E200008520001D8B473EF07F002019E51086E1A
:100E3000E50E085C0001D8B473EF07F00201A95178
:100E40000C6E1E0E0C14096A086E09500810000181
:100E5000D8A473EF07F00201614B622BE751625D8A
:100E60000001D8A473EF07F00201E651615D0001B3
:100E7000D8A473EF07F00201506B0001080E0201C5
:100E8000505D0001D8B054EF07F002EE9EF0020171
:100E90005051EBCF08F002EE91F0505108C0EBFF3B
:100EA000502B0001D8A4E9D7080E0201506F0001B1
:100EB0000B0E0201505D0001D8B071EF07F0080E73
:100EC0000201505D086E02EE9EF05051EBCF0CF027
:100ED00002EE9AF008500CC0EBFF502B0001D8A492
:100EE000E6D78CEF07F0200E02014E270001D8A0B4
:100EF000BDD602014F2B0001D8A4B8D60201512B58
:100F0000000E5223532354230001D8A08CD6010E87
:100F100002014C6F0001120002016F51515D856F9B
:100F200070515259866F71515359876F725154598C
:100F3000886F4FC28AF24EC289F24C6B00011200D8
:100F4000010E0201C35D0001D8A0B3EF07F002015A
:100F5000C25101EE41F0E926000EEA224DC2EFFF38
:100F60000001BCEF07F000EE41F00201C251E9269A
:100F7000000EEA224DC2EFFF0001120084C2C3F24C
:100F800083C2C2F27FC2C6F20201C56BD89084311F
:100F9000246E8331236E2350C5272450C623C54BAE
:100FA000C62B00010201DD530001D8A4DFEF07F0DA
:100FB000020E0201DC5D0001D8A0F3EF07F0C5C20C
:100FC0004DF2BEDF0201C24BC32BC6C24DF200017F
:100FD000B7DF0201C24BC32BC54BC62BDC07000E8B
:100FE000DD5B0001DED7120079C2C6F20201C56BDB
:100FF000D8907E31246E7D31236E2350C527245036
:10100000C623C5C24DF200019BDF0201C24BC32BB8
:10101000C6C24DF2000194DF120002014D690001C9
:101020008FDF0201C24BC32B00018ADF12000201D5
:10103000E12B000EE223E323E423E151CC5DE251F6
:10104000CD59E351CE59E451CF59E451CF19D8B01D
:10105000800A0001D8B834EF08F00201CC2B000E52
:10106000CD23CE23CF23E581000102018F4B902BAE
:101070008F515F5D905160590001D8B085EF09F044
:1010800002018B2B000E8C238D238E23CB2BCB5177
:10109000555D0001D8B07FEF09F0D8960201E5B1A7
:1010A000D8860001D8B6E5EF08F0146A136AC6C204
:1010B00012F0C5C211F01C6A1B6A010E1A6E196A81
:1010C00046EC01F014C07CF213C07BF212C07AF23D
:1010D00011C079F2C5C27DF202017E6BD8907D37D6
:1010E0007E3779516725346E7A516821356E7B5190
:1010F0006921366E7C516A21376E010E4A6F0001FC
:1011000032EC03F07EC24FF27DC24EF25EEC04F090
:1011100078C2C6F277C2C5F2FE0E0201C525236E63
:10112000FF0EC621246EFF0E256A2522266A26227E
:1011300026C014F025C013F024C012F023C011F013
:101140001C6A1B6A1A6A55C219F0BAEC01F014C085
:101150008EF213C08DF212C08CF211C08BF273515B
:101160008B2774518C2375518D2376518E238EC21B
:1011700037F08DC236F08CC235F08BC234F0010EE0
:101180004A6F000132EC03F0010E0201CB6F146ACA
:10119000136AC6C212F0C5C211F01C6A1B6A010EA6
:1011A0001A6E196A46EC01F014C07CF213C07BF28F
:1011B00012C07AF211C079F2C5C27DF27E6BD8906E
:1011C0007D377E3700017CEF09F00201DA4BDB2B23
:1011D000DA51D85DDB51D9590001D8B075EF09F06B
:1011E0007EC284F27DC283F27CC282F27BC281F233
:1011F0007AC280F279C27FF2DBC2DFF2DAC2DEF2BB
:10120000D9C2DDF2D8C2DCF292EC04F0010E020188
:101210004B5D0001D8A40EEF09F0120002017F51CE
:101220006725BE6F80516821BF6F81516921C06FF2
:1012300082516A21C16FC1C237F0C0C236F0BFC24D
:1012400035F0BEC234F0010E4A6F000132EC03F0FB
:1012500095DECADE72EC03F002017F516B25346E1D
:1012600080516C21356E81516D21366E82516E2117
:10127000376E000172EC03F0FE0E0201C525236EED
:10128000FF0EC621246EFF0E256A2522266A26221D
:1012900026C014F025C013F024C012F023C011F0B2
:1012A0001C6A1B6A1A6A55C219F0BAEC01F014C024
:1012B0008EF213C08DF212C08CF211C08BF27351FA
:1012C0008B2774518C2375518D2376518E238EC2BA
:1012D00037F08DC236F08CC235F08BC234F04A6BD9
:1012E000000132EC03F078EF09F00201C54BC62B88
:1012F0000001010E0201CB6F000181EF09F0F3EC58
:1013000003F00201906B010E8F6F0001D0C249F211
:10131000F4EC02F002014B6B00011200010E02011D
:10132000E06F0001F0EC05F01200020E0201485DD2
:101330000001D8A0A9EF09F00201486B476B342ADD
:10134000000E352236223722010E4A6F000132ECA0
:1013500003F0010E0201485D0001D8A0BCEF09F0C6
:101360000201475101EE41F0E926000EEA22EF505A
:10137000496F0001C5EF09F000EE41F0020147514D
:10138000E926000EEA22EF50496F00010201474BA7
:10139000482B0001120041C2C9FFC7A0FED7C9CF28
:1013A00032F042C2C9FFC7A0FED7C9CF32F043C254
:1013B000C9FFC7A0FED7C9CF32F044C2C9FFC7A03A
:1013C000FED7C9CF32F045C2C9FFC7A0FED7C9CFEB
:1013D00032F046C2C9FFC7A0FED7C9CF32F0120013
:1013E000C968C7A0FED7C9CF32F01200400EC76E41
:1013F0009494949A94969488949482840201416976
:10140000426943694469456946690001C4DFC3DF35
:10141000640E24EC01F094948294400E0201416F1A
:10142000426B436B446B456B950E466F0001B3DF17
:10143000010E3E6E3D6A3C6851EC03F0010E3F5CCC
:10144000D8A428EF0AF094948284010E406E120012
:101450003368410E0201416F426B436B446B456B35
:101460004669000198DF3E6A3D6A3C6851EC03F032
:101470003306010E3F52D8A4000E2D6E010E3352DA
:10148000D8A4000E2D10D8B4E4D73352D8A44EEF10
:101490000AF094948284010E406E12009494828427
:1014A00002014669000195DF0201486B476B406A03
:1014B00000011200010E0201F65D0001D8A466EFE2
:1014C0000AF072EC03F04052D8A4FBD70201855118
:1014D0006F25BE6F86517021BF6F87517121C06F1C
:1014E00088517221C16FC1C237F0C0C236F0BFC28D
:1014F00035F0BEC234F0010E4A6F000132EC03F049
:101500001C0E02018925C26F000E8A21C36FCCC256
:101510004DF20001A0EC07F00201C24BC32BCDC27B
:101520004DF20001A0EC07F00201C24BC32BCEC26A
:101530004DF20001A0EC07F00201C24BC32BCFC259
:101540004DF20001A0EC07F0160E02018925C26FD2
:10155000000E8A21C36F000116EC0BF072EC03F051
:10156000D8960201E5A1D8860001D8B6F8EF0AF0B6
:101570007EC284F27DC283F27CC282F27BC281F29F
:101580007AC280F279C27FF202017F516725BE6F75
:1015900080516821BF6F81516921C06F82516A21DA
:1015A000C16FC1C237F0C0C236F0BFC235F0BEC293
:1015B00034F0010E4A6F000132EC03F0DBC2DDF2C1
:1015C000DAC2DCF2BEEC07F00DEC08F072EC03F0CE
:1015D00002017F516B25346E80516C21356E815133
:1015E0006D21366E82516E21376E000172EC03F070
:1015F0001200246AF2C223F0286AF3C227F0010E17
:101600002716286A2850640DF3CF28F02750640D60
:10161000F3CF27F0F45028262350272402014D6FE2
:101620000001A0EC07F00201C24BC32B0001246AA9
:10163000F3C223F0D89024322332286AF4C227F070
:10164000050ED89027362836E82EFBD723502710D2
:1016500002014D6F0001A0EC07F00201C24BC32B49
:10166000246AF4C223F02432233224322332243277
:1016700023321F0E2416286AF5C227F0030ED890D5
:1016800027362836E82EFBD7235027104D6F000150
:10169000A0EC07F00201C24BC32BF0C224F0236A76
:1016A000D890243223322432233224322332EF5191
:1016B00023104D6F0001A0EC07F00201C24BC32BB9
:1016C000246AF0C223F0243223322432233224321B
:1016D00023321F0E2416286AF1C227F0140E272683
:1016E000000E2822D89027362836235027104D6F19
:1016F0000001A0EC07F0120011DE02014C530001C2
:10170000D8B488EF0BF0010E02014B6F00011200FC
:101710000201B851C56FB951C66FBA51CC6FBB51F8
:10172000CD6FBC51CE6FBD51CF6FFE0EC525236E60
:10173000FF0EC621246EFF0E256A2522266A262268
:1017400026C014F025C013F024C012F023C011F0FD
:101750001C6A1B6A1A6A55C219F0BAEC01F014C06F
:101760008EF213C08DF212C08CF211C08BF2735145
:101770008B2774518C2375518D2376518E23010E46
:10178000CB6F8EC237F08DC236F08CC235F08BC273
:1017900034F0010E4A6F000132EC03F0010E405CA0
:1017A000D8A4D8EF0BF0010E02014B6F000112001C
:1017B0000201906B8F6BE46BE36BE26BE16BD8968D
:1017C000CFBFD8860001D8B607EF0CF00201CC518C
:1017D000CD11CE11CF110001D8B407EF0CF0D8967F
:1017E0000201CFBFD8860001D8B607EF0CF0020186
:1017F000CD51CE11CF1106E1010ECC5D0001D8A074
:1018000007EF0CF00201E591000109EF0CF0020175
:10181000E58100010201F66BD96B010ED86F4B6BAD
:1018200000011200D8960201E5B1D8860001D8B6B1
:10183000D4EF0CF002018F4B902B8F515F5D9051D4
:1018400060590001D8B0B8EF0CF0010E0201F65D4E
:101850000001D8A433EF0CF072EC03F04052D8A48E
:10186000FBD70201F66B000102018B2B000E8C23CB
:101870008D238E23CB2BCB51555D0001D8B0B3EF18
:101880000CF0146A136AC6C212F0C5C211F01C6AC9
:101890001B6A010E1A6E196A46EC01F014C07CF244
:1018A00013C07BF212C07AF211C079F2C5C27DF288
:1018B00002017E6BD8907D377E3779516725346E73
:1018C0007A516821356E7B516921366E7C516A21CF
:1018D000376E010E4A6F000132EC03F07EC24FF208
:1018E0007DC24EF25EEC04F078C2C6F277C2C5F259
:1018F000FE0E0201C525236EFF0EC621246EFF0ECB
:10190000256A2522266A262226C014F025C013F057
:1019100024C012F023C011F01C6A1B6A1A6A55C257
:1019200019F0BAEC01F014C08EF213C08DF212C09F
:101930008CF211C08BF273518B2774518C2375512B
:101940008D2376518E238EC237F08DC236F08CC235
:1019500035F08BC234F0010E4A6F000132EC03F017
:10196000010E0201CB6F00010201906B010E8F6F1F
:10197000000195EC09F00201E12B000EE223E323C4
:10198000E423CC51E15DCD51E259CE51E359CF5121
:10199000E459E451CF19D8B0800A0001D8A8D3EF98
:1019A0000CF00201E581000112000201F86B7C6B72
:1019B0007B6B7A6B796B7E6B7D6BD96BD86B00011F
:1019C00092EC04F0010E02014B5D0001D8A4EAEF95
:1019D0000CF012000201E06B0001F0EC05F0010ECA
:1019E00002014C5D0001D8A4FBEF0CF0010E0201D6
:1019F0004B6F00011200020185516F25BE6F8651A9
:101A00007021BF6F87517121C06F88517221C16FE2
:101A1000C1C237F0C0C236F0BFC235F0BEC234F02A
:101A2000010E4A6F000132EC03F00201506B00011D
:101A3000200E0201505D0001D8B02FEF0DF0020121
:101A400050518925C26F000E8A21C36F4D6B000172
:101A5000A0EC07F00201502B0001D8A4E8D78BECD2
:101A600005F00201506B0001080E0201505D0001FB
:101A7000D8B04FEF0DF0020150518925C26F000E12
:101A80008A21C36F02EE91F05051EB504D6F00016F
:101A9000A0EC07F00201502B0001D8A4E4D7080EF7
:101AA0000201506F00010B0E0201505D0001D8B021
:101AB0006FEF0DF0020150518925C26F000E8A218F
:101AC000C36F080E505D02EE9AF0EB504D6F0001AF
:101AD000A0EC07F00201502B0001D8A4E3D70B0EB5
:101AE00002018925C26F000E8A21C36F200E4D6F3F
:101AF0000001A0EC07F00D0E02018925C26F000E57
:101B00008A21C36F0001F9EC0AF01A0E020189253F
:101B1000C26F000E8A21C36FC5C24DF20001A0EC56
:101B200007F00201C24BC32BC6C24DF20001A0EC6C
:101B300007F072EC03F0FE0E0201C525236EFF0EC6
:101B4000C621246EFF0E256A2522266A262226C07B
:101B500014F025C013F024C012F023C011F01C6A49
:101B60001B6A1A6A55C219F0BAEC01F014C08EF261
:101B700013C08DF212C08CF211C08BF273518B27FF
:101B800074518C2375518D2376518E23010ECB6FAA
:101B90008EC237F08DC236F08CC235F08BC234F075
:101BA0004A6B000132EC03F00201906B8F6BCF6B3C
:101BB000CE6BCD6BCC6BE46BE36BE26BE16BE581E1
:101BC000010EF86F000112008EEC09F002014C5377
:101BD0000001D8B4F1EF0DF0010E02014B6F0001CE
:101BE00012000201B851C56FB951C66FBA51CC6F1E
:101BF000BB51CD6FBC51CE6FBD51CF6FCFC2EDF297
:101C0000CEC2ECF2CDC2EBF2CCC2EAF2376A366A4F
:101C1000356A346A0001020155515F03F3CF08F0C1
:101C2000F4CF09F06003F3500926D896EDBFD886AB
:101C30000001D8B6A2EF0EF00201ED5310E1EC5313
:101C40000EE10950EB5D0001D8A0A2EF0EF007E114
:101C50000201EA51085C0001D8B0A2EF0EF0146A4C
:101C6000136AC6C212F0C5C211F01C6A1B6A010ECB
:101C70001A6E196A46EC01F014C07CF213C07BF2B4
:101C800012C07AF211C079F2C5C27DF202017E6BF8
:101C9000D8907D377E3779516725086E7A51682153
:101CA000096E7B5169210A6E7C516A210B6E0850C6
:101CB000345C0CE10950355C09E10A50365C06E100
:101CC0000B50375C0001D8B478EF0EF00201795167
:101CD0006725346E7A516821356E7B516921366EE5
:101CE0007C516A21376E010E4A6F000132EC03F01D
:101CF0007EC24FF27DC24EF25EEC04F078C2C6F2B4
:101D000077C2C5F2146A136A60C212F05FC211F0A2
:101D10001C6A1B6A1A6A55C219F0BAEC01F014C0A9
:101D200026F013C025F012C024F011C023F0235078
:101D30000201EA5F2450EB5B2550EC5B2650ED5B23
:101D4000000168D7146A136AC6C212F0C5C211F046
:101D50001C6A1B6A010E1A6E196A46EC01F014C067
:101D60007CF213C07BF212C07AF211C079F2C5C2C4
:101D70007DF202017E6BD8907D377E37ED51EC11FC
:101D8000EB11EA110001D8A4CBEF0EF00201CB6BEE
:101D90000001E9EF0EF00201EA05236E000EEB5997
:101DA000246E000EEC59256E000EED59266E26C0ED
:101DB00014F025C013F024C012F023C011F01C6AE7
:101DC0001B6A60C21AF05FC219F046EC01F011C044
:101DD000CBF20001FE0E0201C525236EFF0EC621C7
:101DE000246EFF0E256A2522266A262226C014F0BC
:101DF00025C013F024C012F023C011F01C6A1B6A26
:101E00001A6A55C219F0BAEC01F014C08EF213C070
:101E10008DF212C08CF211C08BF2CB518B258B6FDF
:101E2000000E8C218C6F000E8D218D6F000E8E2187
:101E30008E6F73518B2774518C2375518D2376517E
:101E40008E23CB2B8EC237F08DC236F08CC235F08C
:101E50008BC234F0010E4A6F000132EC03F0010E28
:101E6000405CD8A439EF0FF0010E02014B6F000166
:101E70001200EDC214F0ECC213F0EBC212F0EAC291
:101E800011F01C6A1B6A60C21AF05FC219F046ECBE
:101E900001F01AC090F219C08FF290C248F28FC2BE
:101EA00047F2020190518F110001D8A485EF0FF085
:101EB000D8960201EDBFD8860001D8B685EF0FF0A5
:101EC0000201EA51EB11EC11ED110001D8B485EFDC
:101ED0000FF0D8960201EDBFD8860001D8B685EF85
:101EE0000FF00201EB51EC11ED1106E1010EEA5D7C
:101EF0000001D8A085EF0FF060C290F25FC28FF2B0
:101F0000342A000E3522362237220201DB6B010E05
:101F1000DA6FD96B010ED86FE581CFC2E4F2CEC281
:101F2000E3F2CDC2E2F2CCC2E1F24B6B000112004F
:101F30008EEC09F002014C530001D8B4A5EF0FF06C
:101F4000010E02014B6F000112000201B851C56F72
:101F5000B951C66F8AC2C3F289C2C2F2E50E4D6F93
:101F60000001A0EC07F072EC03F002014A6B0001E3
:101F7000146A136AC6C212F0C5C211F01C6A1B6A49
:101F8000010E1A6E196A46EC01F014C07CF213C0FF
:101F90007BF212C07AF211C079F2C5C27DF2020161
:101FA0007E6BD8907D377E3779516725086E7A51E0
:101FB0006821096E7B5169210A6E7C516A210B6E82
:101FC0000850345C0CE10950355C09E10A50365C7C
:101FD00006E10B50375C0001D8B425EF10F0020188
:101FE0004A530001D8B413EF10F072EC03F0020171
:101FF0006751345C236E68513558246E69513658E8
:10200000256E6A513758266E6B512324346E6C51FD
:102010002420356E6D512520366E6E512620376E88
:10202000000172EC03F0020179516725346E7A5198
:102030006821356E7B516921366E7C516A21376E7D
:10204000010E4A6F000132EC03F07EC24FF27DC2F6
:102050004EF25EEC04F078C2C6F277C2C5F27EC2E0
:10206000C3F27DC2C2F202014D6B0001A0EC07F089
:10207000010E02017D25C26F000E7E21C36F00019B
:10208000A0EC07F00201C52901E1C6290001D8A48E
:102090006ED772EC03F002016751345C236E685115
:1020A0003558246E69513658256E6A513758266E58
:1020B0006B512324346E6C512420356E6D512520D4
:1020C000366E6E512620376E000172EC03F002016D
:1020D0004B6B00011200C6CFC6FFC68AF6EC09F0B2
:1020E00040C0E9F2010E0201E95D0001D8A47EEFD3
:1020F00010F0010E02014B6F00011200376A366AC0
:10210000356A346A010E02014A6F000132EC03F0B5
:102110004150086EEB0E085C010ED8A4000E2D6E27
:102120004350086E900E085C010ED8A4000E2D14CA
:10213000D8B4A1EF10F00201666B656B0001B5EF3A
:1021400010F04150086EE90E085CD8A4AEEF10F014
:102150000201666B656B0001B4EF10F002010751DC
:102160000C6E666B0CC065F20001376A366A66C297
:1021700035F065C234F0010E02014A6F000132EC05
:1021800003F04C5002015F6F4D50606F4E50556F21
:102190004F50566F5050576F51505A6F5250616F99
:1021A0005350626F5750586F5850596F61505B6F62
:1021B00062505C6F63505D6F64505E6F5651652571
:1021C000676F57516621686F000E696B69236A6BF0
:1021D00056516525236E57516621246E000E256ADF
:1021E0002522266A585123246B6F595124206C6F85
:1021F000000E25206D6F000E26206E6F146A136A84
:10220000126A5AC211F01C6A1B6A59C21AF058C2EB
:1022100019F0BAEC01F014C072F213C071F212C0DE
:1022200070F211C06FF256516525236E5751662129
:10223000246E000E256A2522266A23506F2724501B
:10224000702325507123265072236251200DF3CF45
:1022500064F26151200DF3CF63F2F450642764C23D
:1022600012F063C211F060C216F05FC215F0A3EC69
:1022700001F0636F12C064F263516F25736F645194
:102280007021746F000E7121756F000E7221766FD0
:1022900065515B25236E66515C21246E000E5D2125
:1022A000256E000E5E21266E2304346E000E245827
:1022B000356E000E2558366E000E2658376E735157
:1022C000345C236E74513558246E75513658256E22
:1022D00076513758266E2328346E000E2420356E32
:1022E000000E2520366E000E2620376E37C014F003
:1022F00036C013F035C012F034C011F01C6A1B6AEE
:102300001A6A55C219F046EC01F014C037F013C038
:1023100036F012C035F011C034F0010E3424C96F0C
:10232000000E3520CA6F02EE91F0040EF76E680EB3
:10233000F66EDCEC01F0EF6A02EE9AF0200EEE6E23
:10234000EE6EEE6EEF6A010EEF6F010EF06FF16B45
:10235000F26BF36BF46BF56BE76BE66B4B6B0001A9
:10236000120002EEFBF0E86AEE5202E0E83EFCD713
:102370000201F96FF907FA6B00010201FA51F95DE8
:102380000001D8A0DDEF11F002EEFBF00201FA51DE
:10239000E926000EEA22EF50D06F000117EC08F09A
:1023A000010E02014B5D0001D8A4D8EF11F012001C
:1023B0000201FA2B0001D8A4DFD71200070EB46E79
:1023C0000F0EC16EC80E24EC01F09380959883988F
:1023D000000EFCEC00F00301C46F010EFCEC00F0F9
:1023E000C56FC42901E1C5290001D8A414EF12F07A
:1023F0009C0E0301C56F500EC46FAA6AA96AC4512E
:1024000005EC01F0AA6A010EA96EC55105EC01F0B8
:10241000AA6A030EA96E000E05EC01F0AA6A040E6A
:10242000A96E000E05EC01F000011BEC00F0040E9B
:10243000F76E720EF66E74EC00F00B0E166EB80EA0
:1024400025EC01F081B038EF12F01BEC00F0040E27
:10245000F76E7C0EF66E74EC00F00B0E166EB80E76
:1024600025EC01F0BBEC14F050EC13F045EF12F04A
:102470001BEC00F0040EF76E8A0EF66E74EC00F0A2
:102480000B0E166EB80E25EC01F0FFD779EC17F0A5
:102490001BEC00F0440E7CEC00F06F0E7CEC00F0C6
:1024A0006E0E7CEC00F0650E7CEC00F00B0E166EF0
:1024B000B80E25EC01F0A8EC12F01BEC00F0040EB5
:1024C000F76E920EF66E74EC00F0F9EC14F0010E5B
:1024D0000301EB5D0001D8A499EF12F01BEC00F0B2
:1024E000800E016E800E28EC00F0040EF76EA00E38
:1024F000F66E74EC00F0800E016EC00E28EC00F059
:10250000040E046E030E1A6ED00E63EC00F086EC1F
:1025100015F01BEC00F0040EF76EAC0EF66E74ECCA
:1025200000F0070E166ED00E25EC01F0C4D7A7EF11
:1025300012F01BEC00F0040EF76EBA0EF66E74EC9F
:1025400000F0070E166ED00E25EC01F0B4D7FFD7C1
:102550001BEC00F0800E016E800E28EC00F0040EE3
:10256000F76EC40EF66E74EC00F0800E016EC00EB5
:1025700028EC00F0040EF76ED20EF66E74EC00F04C
:10258000959883880A0E24EC01F0750E066E300EC5
:10259000026ECEEC00F0D8A03BEF13F08208D8A476
:1025A000F8D703EEC6F00A0EF36ED880CEEC00F03A
:1025B000D8A03BEF13F0EE6EF32EF7D7EAEC00F065
:1025C0000301EB6F95988398830EEB5D0001D8B4FF
:1025D000EBEF12F0BDD70301ED6B00010A0E030112
:1025E000ED5D0001D8B032EF13F003EEC6F0030149
:1025F000ED51EB500C6EB00E0C5C0001D8A015EF45
:1026000013F0BA0E0C5CD8B015EF13F003EEC6F061
:102610000301ED51EB50EF6FEF9F03EEC6F0ED516C
:10262000EFC3EBFF00012DEF13F0810E0C5CD8A07F
:102630002CEF13F0870E0C5CD8B02CEF13F003EEE8
:10264000C6F00301ED51EB50EF6FEF9FEF8D03EEFE
:10265000C6F0ED51EFC3EBFF00010301ED2B0001CC
:10266000D8A4BBD71BEC00F0040EF76EE00EF66E9C
:1026700074EC00F01200959883981BEC00F0800E2B
:10268000016E800E28EC00F0040EF76EEA0EF66E76
:1026900074EC00F0070E166ED00E25EC01F003006E
:1026A0000301EC6B00010FEC18F002EE91F013EE59
:1026B000E4F0070EF36EE65003E0EE6EF32EFBD768
:1026C000EF6A02EE9AF0540EEE6E580EEE6E540E55
:1026D000EE6EEF6A7CEC0BF04BC2EBF3010E0301E4
:1026E000EB5D0001D8A47EEF13F01BEC00F0040EAC
:1026F000F76EFA0EF66E74EC00F003009C0E030108
:10270000C56F500EC46FAA6AA96AC45105EC01F0E6
:10271000AA6A010EA96EC55105EC01F0070E166EEE
:10272000D00E25EC01F00001D8960201E5B1D88663
:102730000001D8B666EF14F012EC0CF049C2EBF3CE
:102740005E0E0301EB5D0001D8B4DAEF13F0400E2A
:102750000301EB5D0001D8A4B9EF13F0AA6A020EE1
:10276000A96E0301EC5105EC01F0000119EF16F020
:1027700012001BEC00F0800E016E800E28EC00F0C1
:10278000050EF76E0A0EF66E74EC00F0800E016E08
:10279000C00E28EC00F0050EF76E140EF66E74EC09
:1027A00000F00B0E166EB80E25EC01F05AEC0AF094
:1027B000FFD703000301ED6B0001040E0301ED5D83
:1027C0000001D8B0F2EF13F012EC0CF049C20CF09B
:1027D00003EED4F00301ED510CC0EBFFED2B000133
:1027E000D8A4EAD712EC0CF049C2EBF33A0E03017D
:1027F000EB5D0001D8B41DEF14F01BEC00F0800E6F
:10280000016E800E28EC00F0050EF76E1E0EF66EBF
:1028100074EC00F0800E016EC00E28EC00F0050E86
:10282000F76E2A0EF66E74EC00F00B0E166EB80EF4
:1028300025EC01F05AEC0AF00300040E0301ED6FE1
:1028400000010E0E0301ED5D0001D8B036EF14F06B
:1028500012EC0CF049C20CF003EED4F00301ED5180
:102860000CC0EBFFED2B0001D8A4EAD70301E2690D
:10287000E369ED6B0001100E0301ED5D0001D8B0BE
:1028800053EF14F00301ED51C425F66E000EC5217F
:10289000F76E03EED4F0ED51EB5013EC01F0ED2B9D
:1028A0000001D8A4E7D7100E0301C427000EC523EA
:1028B000AA6AA96AC45105EC01F0AA6A010EA96EC0
:1028C000C55105EC01F0EC2B00012DD702EE91F083
:1028D00013EEE4F0070EF36EE65003E0EE6EF32E17
:1028E000FBD7570EEE6EEF6A02EE9AF0540EEE6EC4
:1028F000580EEE6E540EEE6EEF6A8EEC09F04CC27E
:10290000EBF30301EB530001D8A489EF14F098EC2A
:102910000FF0D5EC0CF05AEC0AF002EE91F013EE49
:10292000E4F0070EF36EE65003E0EE6EF32EFBD7F5
:10293000570EEE6EEF6A02EE9AF0540EEE6E580EDF
:10294000EE6E540EEE6EEF6AE4EC0DF04BC2EBF35C
:10295000010E0301EB5D0001D8A4B8EF14F01BECED
:1029600000F0050EF76E340EF66E74EC00F0030006
:102970005AEC0AF012000301ED6B0001030E030193
:10298000ED5D0001D8B0EBEF14F0000EC66E000E46
:10299000C76E000EC86E000EC96EC68A6BEC10F0D2
:1029A0004BC2EBF30301EB530001D8A4E6EF14F0A4
:1029B0001BEC00F0050EF76E440EF66E74EC00F0A2
:1029C0000B0E166EB80E25EC01F012000301ED2B74
:1029D0000001D8A4D2D71BEC00F0050EF76E500E04
:1029E000F66E74EC00F00B0E166EB80E25EC01F0CE
:1029F00012000301EB6BC5519C0A500ED8B4C419E8
:102A00000001D8A412EF15F01BEC00F0050EF76ED4
:102A10005A0EF66E74EC00F0070E166ED00E25EC12
:102A200001F012009C0E0301F16F500EF06F0001D7
:102A30000301ED6BEB6B0001040E0301F025236E27
:102A4000000EF121246EED512324F66E000E242099
:102A5000F76EA66AA68E0800F5CFEFF303EEC6F078
:102A6000ED51EB500C6EEF510C5C0001D8A440EF1F
:102A700015F0010E0301EB6FED2B000144EF15F093
:102A80000301EB6B0A0EED6F00010A0E0301ED5D11
:102A90000001D8A0D0D7010E0301EB5D0001D8A43E
:102AA00072EF15F00301ED6B0001040E0301ED5D03
:102AB0000001D8B071EF15F00301ED51F025F66E6D
:102AC000000EF121F76EA66AA68E0800F5CF0CF075
:102AD00003EED0F0ED510CC0EBFFED2B0001D8A4BC
:102AE000E3D71200100E0301F027000EF123C551A9
:102AF000F15D0001D8A485EF15F00301C451F05D2C
:102B00000001D8A485EF15F0120091D7C80E03017B
:102B1000ED6F00010301EE6B0001040E0301EE5D99
:102B20000001D8B0E0EF15F0246AEDC323F0D8908F
:102B300023362436D890233624360301EE5123263B
:102B4000000E2422100E2324A96E000E2420AA6E4B
:102B5000FEEC00F0EF6F246AEDC323F0D89023362B
:102B60002436D89023362436EE512326000E242214
:102B7000040E2326000E2422100E2324A96E000E1C
:102B80002420AA6EEF5105EC01F0246AEDC323F076
:102B9000D89023362436D89023362436EE51232677
:102BA000000E2422040E2326000E2422100E2324BD
:102BB000F06F000E2420F16FEE2B0001D8A4ACD7EB
:102BC000010E0301ED5F0001D8B0A3D71BEC00F0AC
:102BD0000301ED6B0001040E0301ED5D0001D8B0AF
:102BE00004EF16F003EED0F00301ED51EB50EF6F60
:102BF000100EED25AA6AA96EAA36EF5105EC01F078
:102C0000ED2B0001D8A4E6D7030EFCEC00F0030185
:102C1000EF6FC80EEF5D0001D8B017EF16F003019B
:102C2000EF2BAA6A030EA96EEF5105EC01F000012B
:102C300012000A0E0301ED6F00010301EE6B0001AB
:102C4000080E0301EE5D0001D8B064EF16F0246AAF
:102C5000EDC323F02450080DF3CF24F02350080DCA
:102C6000F3CF23F0F45024260301EE512326000E67
:102C70002422900E2324A96E030E2420AA6EFEECBB
:102C800000F0EF6F246AEDC323F02450080DF3CF5A
:102C900024F02350080DF3CF23F0F4502426EE51F6
:102CA0002326000E2422080E2326000E2422900E36
:102CB0002324A96E030E2420AA6EEF5105EC01F027
:102CC000EE2B0001D8A4BBD7010E0301ED5F00017C
:102CD000D8B0B2D70301ED6B0001080E0301ED5D22
:102CE0000001D8B086EF16F012EC0CF049C2EBF3FD
:102CF000900E0301ED25AA6AA96E030EAA22EB51DC
:102D000005EC01F0ED2B0001D8A4E6D7040EFCEC95
:102D100000F00301EF6F0A0EEF5D0001D8B099EFEC
:102D200016F00301EF2BAA6A040EA96EEF5105EC11
:102D300001F000015AEC0AF01BEC00F0050EF76EF2
:102D4000640EF66E74EC00F012000FEC18F002EE58
:102D500091F013EEE4F0070EF36EE65003E0EE6E32
:102D6000F32EFBD7EF6A02EE91F0EE50FEE1ED524A
:102D70004D0EEE6EEF6A02EE9AF0540EEE6E580EA5
:102D8000EE6E540EEE6EEF6A98EC0FF0D5EC0CF090
:102D9000040EFCEC00F00301EE6F03EEF2F0020E05
:102DA000016EEE5131EC00F0EF6AEE530001D8A451
:102DB000E8EF16F002EEFBF0050EF76E720EF66EFF
:102DC000DCEC01F0EF6AB1EC11F05AEC0AF0120001
:102DD00002EEFBF013EEF2F0030EE75204E0E6CF52
:102DE000EEFFE82EFAD7EF6AB1EC11F07C0EE8CFD7
:102DF000D0F217EC08F00301EC6B00010301ED6B5E
:102E00000001020E0301ED5D0001D8B031EF17F0B3
:102E1000030E246E900E236E286AECC327F0285010
:102E2000080DF3CF28F02750080DF3CF27F0F4500A
:102E3000282627502326285024220301ED5123243D
:102E4000A96E000E2420AA6EFEEC00F0EF6F0001C8
:102E5000EFC3D0F217EC08F00301ED2B0001D8A46A
:102E6000CFD73A0EE8CFD0F217EC08F0020E0301EC
:102E7000ED6F0001080E0301ED5D0001D8B06AEFAF
:102E800017F0030E246E900E236E286AECC327F011
:102E90002850080DF3CF28F02750080DF3CF27F066
:102EA000F450282627502326285024220301ED51D0
:102EB0002324A96E000E2420AA6EFEEC00F0EF6F12
:102EC0000001EFC3D0F217EC08F00301ED2B000175
:102ED000D8A4CFD72F0EE8CFD0F217EC08F003011B
:102EE000EC2BEC51EE5D0001D8A487D75AEC0AF028
:102EF00012000FEC18F002EE91F013EEE4F0070E62
:102F0000F36EE65003E0EE6EF32EFBD7EF6A02EEAF
:102F100091F0EE50FEE1ED52520EEE6EEF6A02EECF
:102F20009AF0540EEE6E580EEE6E540EEE6EEF6A80
:102F300098EC0FF0D5EC0CF00301C5519C0A500E33
:102F4000D8B4C4190001D8A4C1EF17F01BEC00F0ED
:102F5000050EF76E860EF66E74EC00F0070E166E18
:102F6000D00E25EC01F002EEFBF0050EF76E900E90
:102F7000F66EDCEC01F0EF6AB1EC11F05AEC0AF0FD
:102F80001200020EFCEC00F00301EE6FEC6B9C0EE5
:102F9000F16F500EF06F00010301ED6B0001040EA4
:102FA0000301ED5D0001D8B0ECEF17F00301ED5126
:102FB000F025F66E000EF121F76EA66AA68E0800C7
:102FC000F5CFEFF30001EFC3D0F217EC08F00301E7
:102FD000ED2B0001D8A4E2D73A0EE8CFD0F217ECDF
:102FE00008F0100E0301F027000EF123EC2BEC513A
:102FF0007CEC00F0EC51EE5D0001D8A4CCD71BECCA
:1030000000F0050EF76EA00EF66E74EC00F0070EE1
:10301000166ED00E25EC01F05AEC0AF012000301F6
:10302000ED6B0001080E0301ED5D0001D8B02EEF3D
:1030300018F0400E0301ED25F76AF66E9C0EF7229C
:10304000A66AA68E0800F5CF0CF003EEE4F0ED5171
:103050000CC0EBFFED2B0001D8A4E3D712001BEC52
:1030600000F0800E016E800E28EC00F0050EF76E69
:10307000AC0EF66E74EC00F0070E166ED00E25EC5A
:1030800001F0F288F2920300F2981BEC00F0800E3F
:10309000016E800E28EC00F0050EF76EBE0EF66E87
:1030A00074EC00F0070E166ED00E25EC01F0D7D7A9
:089C4000413237423833420083
:020000040030CA
:0300010001181FC4
:020005008184F4
:060008000FC00FE00F40E5
:00000001FF
