:10000000000001308A0078298030A100FE30BD2038
:100010000130BD207530AD0030302329A101A1177A
:10002000B500FE30BD203508BD28A501B000B101E6
:10003000A01125080319A0150530A4002730AF0032
:1000400010302E200330AF00E8302E20AF01643096
:100050002E20AF010A302E2030083528AE0031089E
:10006000AD003008AC0044212C08AC00A4030319F7
:10007000A011250803193F282402031808002C08A2
:10008000031DA011A0190800303EBD28B3000813BD
:100090008813831608138813F030880583123308F9
:1000A000A01870283E30AD00803023213330B200DC
:1000B00085201330AD008830232185206430222133
:1000C0008520643022212230B200852028306F2024
:1000D0000C306F2006306F20A014330870282014D5
:1000E000B200201C7E288813033C031C8328832035
:1000F0000530AD00DC302321031408002014FE3C41
:10010000031992288817B20E201C20100817F0300F
:10011000880532080F3988040813B20E2018852884
:100120003230222133087329981818121816220821
:10013000AC002608AD00AE01AF019E289F2800004C
:100140008C1ABA28FF30AE07031CAF07031CAC079C
:10015000031CAD07031C73292E0F9D282F0F9E280B
:100160003230AE000030AF009F28981818121816D1
:100170008C1EB8281A0803147329A11B46280317DC
:100180008D00031783168C130C1483120C088D0A30
:10019000732903178C0083168C130C1555308D00B2
:1001A000AA308D008C148C18D3280C1183128D0A60
:1001B0007329AF0022088400260984178005841360
:1001C000AF0803190129F030B1002E088038B000C3
:1001D000F030B1030319B1000319AF03031901296A
:1001E000F1280521030127182608AE1F2608AE08AE
:1001F00003190301B00FFE288006E528FF28000040
:10020000E82826088417800473292808270403197E
:10021000A70A8030271AA8062719A806A718A80633
:10022000280DA70DA80D27087329AF01AE00FF30D8
:10023000AE07031CAF07031C73290330AD00DF308A
:1002400023211729AD01E83EAC00AD09FC30031CA9
:100250002C29AC0703182929AC070000AD0F292968
:100260002C183229AC1C3629000036290800013030
:100270008A00340807398207013402340434083410
:100280001034203440348034B101B0011030B20059
:100290002D0DB00DB10D2E08B0022F08031C2F0F2D
:1002A000B10203185A292E08B0072F0803182F0F80
:1002B000B1070310AC0DAD0DB20B48292C08732902
:1002C000B4003721AC01AD01B41DAC00B419AD00D0
:1002D0002C087329AC001130FF3EAC0DAD0D031C92
:1002E0006C29AC00732983138312031300000800E8
:1002F00083161930990020309800831290309800AE
:10030000A00183160113811307309F0087158812FF
:1003100083124330BD0087108316871083120711A4
:100320008316071183120816831608128312881287
:100330008316881283120816831608128B138312F1
:100340008A110A128B1FA7298B138A019F290B126E
:10035000FE308A0146200F308A0146208A0104209F
:10036000FE308A01462002308A0146200330BC005C
:10037000FF308A01BF20DD005D0A8A110A12031DC9
:10038000D4290317FF308D00053003138A01C920DB
:100390000530DD00FE3003178D00CA3003138A01DB
:1003A000C9208A110A163F2BFF308A01BF20DD00C9
:1003B0008A110A12871D362A8A0104208030A10082
:1003C00080308A010E2057308A01462065308A012C
:1003D00046206C308A01462063308A0146206F3007
:1003E0008A0146206D308A01462065308A01462008
:1003F00020308A01462074308A0146206F308A01FD
:1004000046208030A100C0308A010E204B308A0186
:10041000462065308A01462079308A0146204230E4
:100420008A01462075308A01462073308A014620B1
:1004300074308A01462065308A01462072308A0174
:10044000462073308A0146202E308A0146208A01D8
:1004500046208A0146200B30AF00B8308A011621B1
:100460008A110A163F2B8A110A127B2A8A0104205C
:100470008030A10080308A010E2052308A0146204F
:1004800065308A01462061308A01462064308A0145
:10049000462079308A01462020308A014620743077
:1004A0008A0146206F308A0146208030A100C0308A
:1004B0008A010E2053308A01462074308A0146207A
:1004C00061308A01462072308A01462074308A01E8
:1004D000462020308A01462055308A0146206E3061
:1004E0008A01462069308A01462074308A014620FC
:1004F0008A110A16862C32308A0115218601F030C5
:10050000831686008312AA01060E0F39A900290856
:100510000F3A2A048A110A120319902A8A017E2AA4
:1005200032308A011521DF0104305F028A110A127C
:100530000318B72A86015F088A016021A9002D08E7
:10054000AA00FF302906831686008312060E0F3993
:10055000E0000F3060028A110A120319B22A8A11D0
:100560000A12B92ADF0A8A110A12031D942A8A0183
:10057000932A5F08B800B9010310B80DB90DB80D82
:10058000B90D0F306006AC000030AD008A016B2160
:10059000AA01A90038082907E100043061028A1184
:1005A0000A12031DD82A5530E1008A110A12582B6D
:1005B000053061028A110A12031DE32A0430E100AA
:1005C0008A110A12582B063061028A110A12031D81
:1005D000EE2A0530E1008A110A12582B0730610219
:1005E0008A110A12031DF92A0630E1008A110A1243
:1005F000582B083061028A110A12031D042B443063
:10060000E1008A110A12582B093061028A110A127C
:10061000031D0F2B0730E1008A110A12582B0A30F4
:1006200061028A110A12031D1A2B0830E1008A1197
:100630000A12582B0B3061028A110A12031D252B56
:100640000930E1008A110A12582B0C3061028A111C
:100650000A12031D302B4E30E1008A110A12582B6A
:100660000D3061028A110A12031D3B2B4330E10059
:100670008A110A12582B0E3061028A110A12031DC8
:10068000452BE1018A110A12582B0F3061028A11A1
:100690000A12031D502B4830E1008A110A12582B10
:1006A000103061028A110A12031D582B4530E100F7
:1006B00008008A010420FF308A01BF20DD00BE301F
:1006C0005D028A110A12031C1C2C8A110A16B42618
:1006D0008A0104208030A10080308A010E204D3034
:1006E0008A01462065308A0146206D308A01462005
:1006F0006F308A01462072308A01462079308A01A3
:10070000462020308A01462069308A014620733015
:100710008A01462020308A01462066308A01462020
:1007200075308A0146206C308A0146208A014620B5
:1007300021308A0146208030A100C0308A010E207D
:1007400059308A0146206F308A01462075308A016F
:10075000462020308A0146206D308A0146207530BF
:100760008A01462073308A01462074308A0146206F
:1007700020308A01462064308A01462065308A0193
:1007800046206C308A01462065308A01462074304C
:100790008A01462065308A0146208030A1009030D1
:1007A0008A010E2061308A01462020308A014620CD
:1007B00055308A01462073308A01462065308A010F
:1007C000462072308A0146202E308A014620803031
:1007D000A100D0308A010E2050308A0146207230AC
:1007E0008A01462065308A01462073308A014620FE
:1007F0008A01462020308A01462045308A01462061
:100800006E308A01462074308A01462065308A01A4
:10081000462072308A0146208A017B2245306102DF
:100820008A110A12031D1A2C8A110A163F2B8A11EB
:100830000A121C2C8A01652B8A110A121A268A15A3
:100840000A122D248A150A12B1258A110A123F189C
:100850002C2C8A110A163F2B8A150A126B258A1135
:100860000A123F1CC72D3B08C0008A150A12E72157
:100870008A110A163D268A110A16B4268A01042016
:100880008030A10080308A010E2054308A01462039
:1008900061308A01462067308A01462020308A0173
:1008A000462062308A01462065308A0146206C303D
:1008B0008A0146206F308A0146206E308A01462028
:1008C00067308A01462073308A01462020308A0131
:1008D000462074308A0146206F308A0146208030DD
:1008E000A100C0308A010E2055308A0146207330A5
:1008F0008A01462065308A01462072308A014620EE
:1009000023308A01462020308A01462044088A018B
:10091000152045088A01152046088A011520470838
:100920008A01152048088A01152049088A011520E6
:100930008030A10090308A010E2028308A014620A4
:1009400031308A01462029308A01462020308A0130
:10095000462044308A01462065308A0146206C30AA
:100960008A01462065308A01462074308A0146207B
:1009700065308A01462020308A01462055308A01A0
:10098000462073308A01462065308A014620723045
:100990008A0146208030A100D0308A010E20283004
:1009A0008A01462032308A01462029308A014620B9
:1009B00020308A01462053308A01462074308A0153
:1009C000462061308A01462072308A014620743008
:1009D0008A01462020308A0146204F308A01462075
:1009E00076308A01462065308A01462072308A01BD
:1009F00046204330BD008A017B22023061028A1109
:100A00000A12031D092D8A110A163F2B8A110A1298
:100A1000A62D013061028A110A12031DA42D8A013C
:100A200004208030A10080308A010E2054308A01D9
:100A3000462061308A01462067308A0146202030F6
:100A40008A01462077308A01462069308A01462093
:100A50006C308A0146208A01462020308A014620D7
:100A600062308A01462065308A0146208030A1002C
:100A7000C0308A010E2061308A01462073308A011D
:100A800046208A01462069308A01462067308A0163
:100A900046206E308A01462065308A014620643047
:100AA0008A01462020308A01462074308A0146207F
:100AB0006F308A01462020308A0146206E308A013C
:100AC000462065308A01462077308A0146208030F2
:100AD000A10090308A010E2055308A0146207330E3
:100AE0008A01462065308A01462072308A014620FC
:100AF00020308A0146208030A10044088A01152058
:100B00008030A10045088A0115208030A1004608E8
:100B10008A0115208030A10047088A011520803005
:100B2000A10048088A0115208030A10049088A01E7
:100B300015200F30AF00A0308A0116218A110A1249
:100B4000A62D8A110A12A62D8A01332CF8304207ED
:100B5000A900FF300318013EAA002A088A110A12D0
:100B6000031DC42D29083B028A110A12031DC42D3E
:100B70000830DD020317FF308D0003135D088A0182
:100B8000C9208A110A12C72D8A150A1246258A150C
:100B90000A1274278A110A169E268A0104208030C0
:100BA000A10080308A010E2054308A014620613035
:100BB0008A01462067308A01462020308A0146207B
:100BC00026308A01462020308A01462055308A018D
:100BD000462073308A01462065308A0146207230F3
:100BE0008A01462023308A0146208030A100C0308F
:100BF0008A010E2049308A0146206E308A01462043
:100C000073308A01462065308A01462072308A019D
:100C1000462074308A01462065308A0146206430BF
:100C20008A0146200F30AF00A0308A0116218A11B8
:100C30000A163F2B8A0104208030A100C0308A01AF
:100C40000E2045308A0146206E308A0146207430DD
:100C50008A01462065308A01462072308A0146208A
:100C600020308A01462055308A01462073308A019F
:100C7000462065308A01462072308A0146202030A5
:100C80008A01462023308A0146208030A10090301E
:100C90008A010E2028308A01462036308A014620FB
:100CA00020308A01462044308A01462069308A017A
:100CB000462067308A01462069308A014620743018
:100CC0008A01462073308A01462029308A01462055
:100CD0008030A100D0308A010E2043308A014620A6
:100CE0004C308A01462045308A01462041308A0135
:100CF000462052308A01462020308A014620743036
:100D00008A0146206F308A01462020308A01462021
:100D100045308A01462078308A01462069308A01B0
:100D2000462074308A014620FE308A014620023077
:100D30008A014620BA0106303A028A110A120318C3
:100D4000C92E8A017B220A3061028A110A12031815
:100D5000B62E3A08443E8400610880008030A1002D
:100D600061088A0115208A110A12C42E43306102DB
:100D70008A110A12031DC22E8A110A163F2B8A11EC
:100D80000A12C42E8A01A12EBA0A8A110A12031D60
:100D90009B2E8A110A169E268A010420FE308A01A3
:100DA000462002308A0146208030A10044088A0192
:100DB00015208030A10045088A0115208030A1004F
:100DC00046088A0115208030A10047088A011520B5
:100DD0008030A10048088A0115208030A100490810
:100DE0008A0115208030A100C0308A010E204930D0
:100DF0008A01462073308A01462020308A0146202D
:100E000074308A01462068308A01462069308A01A0
:100E1000462073308A01462020308A014620633004
:100E20008A0146206F308A01462072308A014620AE
:100E30008A01462065308A01462063308A014620B7
:100E400074308A0146203F308A0146208030A1005C
:100E500090308A010E2045308A0146204E308A01AA
:100E6000462054308A01462045308A0146205230BF
:100E70008A01462020308A0146203D308A014620E2
:100E800020308A01462043308A0146206F308A0193
:100E9000462072308A0146208A01462065308A0148
:100EA000462063308A01462074308A014620803013
:100EB000A100D0308A010E2043308A0146204C30F8
:100EC0008A01462045308A01462041308A01462069
:100ED00052308A01462020308A0146203D308A0166
:100EE000462020308A01462052308A014620653053
:100EF0008A01462064308A0146206F308A014620EC
:100F00008A017B22433061028A110A12031D8D2F50
:100F10008A011A2E8A110A12CF2F453061028A11D6
:100F20000A12031DCD2F4408BE004508BD003D1622
:100F30003E1C3D12BD16BE1CBD123D173E1D3D138D
:100F4000BD17BE1DBD133D08CA004608BE004708B8
:100F5000BD003D163E1C3D12BD16BE1CBD123D1708
:100F60003E1D3D13BD17BE1DBD133D08CB004808F7
:100F7000BE004908BD003D163E1C3D12BD16BE1CFC
:100F8000BD123D173E1D3D13BD17BE1DBD133D08CF
:100F9000CC0008008A110A12CF2F8A01802FC001CD
:100FA0005D08C2008A0104208030A10080308A01DF
:100FB0000E2055308A01462073308A014620653064
:100FC0008A01462020308A01462041308A0146208D
:100FD00072308A0146208A0146206F308A014620FD
:100FE00077308A01462020308A0146204B308A0122
:100FF000462065308A01462079308A0146207330C8
:101000008A0146208030A100C0308A010E20743051
:101010008A0146206F308A01462020308A0146200E
:1010200053308A01462063308A01462072308A019B
:1010300046206F308A0146206C308A0146208A01A2
:1010400046202E308A0146208030A10090308A014F
:101050000E2027308A01462043308A0146206C301A
:101060008A01462065308A01462061308A01462087
:1010700072308A01462027308A01462020308A01BA
:10108000462074308A0146206F308A014620203085
:101090008A01462045308A01462078308A01462060
:1010A00069308A01462074308A0146200F30AF0033
:1010B000A0308A0116210530C1004108C0008A0114
:1010C00004208A150A12E5208A017B22553061022C
:1010D0008A150A12031DB328063041028A150A1226
:1010E000031C7A280830C1028A150A125D288A1565
:1010F0000A12B0288A0104208030A10080308A01C1
:101100000E2053308A01462074308A014620613017
:101110008A01462072308A01462074308A014620B6
:1011200020308A0146206F308A01462066308A01CD
:10113000462020308A0146204C308A014620693002
:101140008A01462073308A01462074308A01462085
:101150000330AF00E8308A0116218A150A125D2893
:101160008A150A12E528443061028A150A12031D05
:10117000D72818304107A900AA01AA0D2A088A1504
:101180000A12031DD128420829028A150A120318DF
:10119000D1280830C1078A150A125D288A150A125B
:1011A000D4288A150A125D288A150A12E5284330C8
:1011B00061028A150A12031DE3288A110A163F2BC1
:1011C0008A150A12E5288A01D22F8A150A12E72108
:1011D0008A110A163D268030A10080308A010E2037
:1011E00044088A01152045088A01152046088A010D
:1011F000152047088A01152048088A01152049084A
:101200008A0115200830C007400842028A150A12D8
:10121000031D31298030A100C0308A010E204530E5
:101220008A0146204E308A01462044308A014620F9
:1012300020308A0146204F308A01462046308A01FC
:10124000462020308A0146204C308A014620493011
:101250008A01462053308A01462054308A014620B4
:1012600008008A150A12E7218A110A163D268030E5
:10127000A100C0308A010E2044088A0115204508CB
:101280008A01152046088A01152047088A01152081
:1012900048088A01152049088A0115200830C0072E
:1012A000400842028A150A12031D7D298030A100E0
:1012B00090308A010E2045308A0146204E308A0146
:1012C000462044308A01462020308A0146204F3093
:1012D0008A01462046308A01462020308A01462075
:1012E0004C308A01462049308A01462053308A0119
:1012F000462054308A01462008008A150A12E72148
:101300008A110A163D268030A10090308A010E20F5
:1013100044088A01152045088A01152046088A01DB
:10132000152047088A01152048088A011520490818
:101330008A0115200830C007400842028A150A12A7
:10134000031DC9298030A100D0308A010E2045300C
:101350008A0146204E308A01462044308A014620C8
:1013600020308A0146204F308A01462046308A01CB
:10137000462020308A0146204C308A0146204930E0
:101380008A01462053308A01462054308A01462083
:1013900008008A150A12E7218A110A163D268030B4
:1013A000A100D0308A010E2044088A01152045088A
:1013B0008A01152046088A01152047088A01152050
:1013C00048088A01152049088A0115200800BA0139
:1013D00040083A078A01BF20BD003A084A3E84000F
:1013E0003D088000BA0A03303A028A150A12031C2B
:1013F000E8294330BD000800CA30C100FA30C200FD
:101400008A0104208030A10080308A010E205530EE
:101410008A01462073308A01462065308A014620C1
:1014200020308A01462041308A01462072308A01EC
:1014300046208A0146206F308A01462077308A0193
:10144000462020308A0146204B308A0146206530F4
:101450008A01462079308A01462073308A0146206D
:101460008030A100C0308A010E2074308A014620ED
:101470006F308A01462020308A01462053308A018D
:10148000462063308A01462072308A0146206F3040
:101490008A0146206C308A0146208A0146202E307F
:1014A0008A0146208030A10090308A010E2027302A
:1014B0008A01462043308A0146206C308A0146204A
:1014C00065308A01462061308A01462072308A01E7
:1014D000462027308A01462020308A014620743079
:1014E0008A0146206F308A01462020308A0146203A
:1014F00045308A01462078308A01462069308A01C9
:10150000462074308A0146200F30AF00A0308A0197
:101510001621FE308A01BF20C3004108C0008A01A5
:1015200004208A150A1216238A017B225530610293
:101530008A150A12031DE32ACB3041028A150A12CA
:10154000031CAA2A0330C1028A150A128D2A8A15A1
:101550000A12E02A8A0104208030A10080308A012A
:101560000E2053308A01462074308A0146206130B3
:101570008A01462072308A01462074308A01462052
:1015800020308A0146206F308A01462066308A0169
:10159000462020308A0146204C308A01462069309E
:1015A0008A01462073308A01462074308A01462021
:1015B0000330AF00E8308A0116218A150A128D2AFD
:1015C0008A150A12162B443061028A150A12031D6D
:1015D000072B09304107A900AA01AA0D2A088A157C
:1015E0000A12031D012B430829028A150A12031847
:1015F000012B0330C1078A150A128D2A8A150A1297
:10160000042B8A150A128D2A8A150A12162B4330CA
:1016100061028A150A12031D132B8A110A163F2B29
:101620008A150A12162B8A150A12002A8A150A121E
:1016300018248A110A163D268030A10080308A01C4
:101640000E2044088A01152045088A011520460805
:101650008A01152047088A01152048088A011520AB
:1016600049088A0115200330C007400843028A1543
:101670000A12031D622B8030A100C0308A010E20A7
:1016800045308A0146204E308A01462044308A0186
:10169000462020308A0146204F308A0146204630BD
:1016A0008A01462020308A0146204C308A0146209B
:1016B00049308A01462053308A01462054308A013D
:1016C000462008008A150A1218248A110A163D2697
:1016D0008030A100C0308A010E2044088A01152004
:1016E00045088A01152046088A01152047088A0105
:1016F000152048088A01152049088A011520033061
:10170000C007400843028A150A12031DAE2B803021
:10171000A10090308A010E2045308A0146204E30CB
:101720008A01462044308A01462020308A01462022
:101730004F308A01462046308A01462020308A01F7
:1017400046204C308A01462049308A0146205330D9
:101750008A01462054308A01462008008A150A1260
:1017600018248A110A163D268030A10090308A0183
:101770000E2044088A01152045088A0115204608D4
:101780008A01152047088A01152048088A0115207A
:1017900049088A0115200330C007400843028A1512
:1017A0000A12031DFA2B8030A100D0308A010E20CE
:1017B00045308A0146204E308A01462044308A0155
:1017C000462020308A0146204F308A01462046308C
:1017D0008A01462020308A0146204C308A0146206A
:1017E00049308A01462053308A01462054308A010C
:1017F000462008008A150A1218248A110A163D2666
:101800008030A100D0308A010E2044088A011520C2
:1018100045088A01152046088A01152047088A01D3
:10182000152048088A01152049088A01152008005A
:10183000BA0140083A078A01BF20BD003A084A3E73
:1018400084003D088000BA0A03303A028A150A1261
:10185000031C192C4330BD00080005305D028A15B9
:101860000A12031D342C08005D08C2000530BB00BD
:10187000BA0103303A028A150A120318612C3F108C
:101880003B083A078A01BF20BD003A084A3E84005F
:101890000008A9003D08290203190130031D0301B6
:1018A000003C8A150A12031D5B2C8A150A12612C52
:1018B0008A150A125C2C3F14BA0A8A150A12031DF3
:1018C000392C8A150A123F1C682C8A150A12762CAC
:1018D0000830BB073B0842028A150A12031D712C0F
:1018E00008004330BD008A150A12382C8A110A16E6
:1018F000B4268A0104208030A10080308A010E20A5
:1019000055308A01462073308A01462065308A01AD
:10191000462072308A01462020308A014620453018
:101920008A01462078308A01462069308A014620A3
:1019300073308A01462074308A01462073308A0150
:10194000462021308A0146208030A100C0308A0123
:101950000E2044308A01462065308A0146206C30D2
:101960008A01462065308A01462074308A0146206B
:1019700065308A01462020308A01462055308A0190
:10198000462073308A01462065308A014620723035
:101990008A0146203F308A0146208030A1009030E5
:1019A0008A010E2028308A01462031308A014620E3
:1019B00029308A01462020308A0146203D308A01A4
:1019C000462020308A01462059308A014620653061
:1019D0008A01462073308A0146208030A100D03031
:1019E0008A010E2028308A01462032308A014620A2
:1019F00029308A01462020308A0146203D308A0164
:101A0000462020308A0146204E308A0146206F3021
:101A10008A0146208A017B22023061028A150A125D
:101A2000031D182D8A110A163F2B8A150A12272D1D
:101A3000013061028A150A12031D242D8A150A122B
:101A4000272D8A150A12272D8A150A12762CF830AE
:101A50004207A900FF300318013EAA002A088A1590
:101A60000A12031D462D29083B028A150A12031D7E
:101A7000462D0830DD020317FF308D0003135D088B
:101A80008A01C92008008A150A126B2D0830DD0270
:101A90000317FF308D0003135D088A01C920BA01C6
:101AA00008303A028A150A120318682D5D083A07B1
:101AB0008A01BF20BD003B083A0703178D000313BE
:101AC0003D088A01C920BA0A8A150A12031D502D41
:101AD0004330BD0008003F1005305D028A150A1230
:101AE000031D732D08005D08C2000530BB00BA015C
:101AF0003F103C083B07B800B901B90D3A08380758
:101B00008A01BF20BD003A08573E84000008A900A2
:101B10003D0829028A150A12031D932D3F14BA0AA3
:101B20008A150A12962D3F100530BA0005303A0288
:101B30008A150A12031C792D8A150A123F1CA12D41
:101B400008004330BD000830BB073B0842028A153D
:101B50000A12031DAC2D08004330BD008A150A127D
:101B6000772D8A0104208030A10080308A010E2068
:101B700054308A0146206F308A01462020308A0185
:101B8000462053308A01462063308A014620613066
:101B90008A0146206E308A01462020308A01462084
:101BA00054308A01462061308A01462067308A011C
:101BB00046208030A100C0308A010E2070308A019A
:101BC000462072308A01462065308A0146207330F3
:101BD0008A0146208A01462020308A01462045306D
:101BE0008A0146204E308A01462054308A01462020
:101BF00045308A01462052308A01462020308A0131
:101C0000462077308A01462068308A0146206530B8
:101C10008A0146206E308A0146208030A100903033
:101C20008A010E2072308A01462065308A014620E2
:101C300061308A01462064308A01462079308A0169
:101C400046208030A100D0308A010E2043308A0126
:101C500046204C308A01462045308A0146204130DA
:101C60008A01462052308A01462020308A014620CF
:101C700074308A0146206F308A01462020308A0164
:101C8000462043308A01462061308A0146206E306A
:101C90008A01462063308A01462065308A01462049
:101CA0006C308A0146208A017B22433061028A150A
:101CB0000A12031D612E8A110A163F2B8A150A1279
:101CC000742F453061028A150A12031D712F8A0193
:101CD00004208030A10080308A010E2041308A012A
:101CE000462074308A0146208A01462065308A01E8
:101CF00046206D308A01462070308A0146207430BB
:101D00008A01462069308A0146206E308A014620C9
:101D100067308A01462020308A01462074308A01CB
:101D200046206F308A0146208030A100C0308A01F1
:101D30000E2072308A01462065308A0146206130CB
:101D40008A01462064308A01462020308A014620DC
:101D500054308A01462061308A01462067308A016A
:101D600046202E308A0146208A0146208A014620DC
:101D70008A0146203F100812831608120A30831287
:101D80008A0115217530A6003030A2008A01942006
:101D90008A150A12031C2B2F0A3C8A150A12031DEE
:101DA000C62EA90103148A0194208A150A12031C65
:101DB0002B2F29084D3E84001A088000A90A290803
:101DC0000A3C8A150A12031DD22E8A01B520DC00B6
:101DD0000D305C028A150A12031D242F0816831683
:101DE000081283123F144D08A9004E08AB002908C1
:101DF0002B07BD003D08D7004F08A9005008AB00D5
:101E000029082B07BD003D08D8005108A900520839
:101E1000AB0029082B07BD003D08D9005308A900D5
:101E20005408AB0029082B07BD003D08DA0055080F
:101E3000A9005608AB0029082B07BD003D08DB00B0
:101E400008008A150A122B2F08168316081283120F
:101E50008A150A12BA2E08168316081283128A11DE
:101E60000A16B4268A0104208030A10080308A013D
:101E70000E204E308A0146206F308A0146202030E5
:101E80008A01462054308A01462061308A0146206A
:101E900067308A01462020308A01462044308A017A
:101EA000462065308A01462074308A01462065301C
:101EB0008A01462063308A01462074308A01462018
:101EC00065308A01462064308A0146200B30AF001D
:101ED000B8308A0116218A110A16AE2D8A150A1207
:101EE000742F8A150A12B12DBA0103303A028A15ED
:101EF0000A1203188D2F3A084A3E84000008BD00DC
:101F00005D083A0703178D0003133D088A01C920B5
:101F1000BA0A8A150A12031D752FBA0105303A0252
:101F20008A150A120318AB2F3A08573E840000089E
:101F3000BD005D083C07B800B901B90D3A08380783
:101F400003178D0003133D088A01C920BA0A8A15B8
:101F50000A12031D8E2F4330BD000830DD07031722
:101F6000FF308D0003135D088A01C9200800BA0103
:101F700005303A028A150A120318CD2F3A080317C2
:101F80008D0003133A08573E840000088A01C920D7
:101F9000BA0A8A150A12031DB82F0800CA30C100F8
:101FA000FA30C200FE308A01BF20C000CA304002B1
:101FB0008A150A12031DDF2F8A110A160428BA0196
:101FC00003303A028A150A120318FF2FFD3040072A
:101FD000B800FF300318013EB9003A0838078A01FB
:101FE000BF20BD0040083A0703178D0003133D08CA
:101FF0008A01C920BA0A8A150A12031DE02F03308C
:10200000C0028A150A12D62FBA0103303A028A1189
:102010000A1603181D283A084A3E84000008BD002D
:1020200040083A0703178D0003133D088A01C920B1
:10203000BA0A8A110A16031D0528FE308A01BF203C
:10204000C000F43040028A110A1603182928033010
:10205000C007FE3003178D00031340088A01C92012
:1020600008008A0104208030A10080308A010E20FF
:1020700028308A01462031308A01462029308A01E1
:10208000462020308A01462041308A0146206430B3
:102090008A0146208A01462020308A0146204E309F
:1020A0008A01462065308A01462077308A01462021
:1020B00020308A01462055308A01462073308A013B
:1020C000462065308A01462072308A0146208030E1
:1020D000A100C0308A010E2028308A01462032300B
:1020E0008A01462029308A01462020308A01462074
:1020F00044308A01462065308A0146206C308A01CE
:10210000462065308A01462074308A0146206530B9
:102110008A01462020308A01462055308A01462017
:1021200073308A01462065308A01462072308A0168
:1021300046208030A10090308A010E2028308A018C
:10214000462033308A01462029308A01462020303B
:102150008A01462044308A01462065308A014620A3
:102160006C308A01462065308A01462074308A012D
:10217000462065308A01462020308A0146204130C1
:102180008A0146204C308A0146208A014620803050
:10219000A100D0308A010E2028308A014620343038
:1021A0008A01462029308A01462020308A014620B3
:1021B00056308A01462069308A01462065308A01FE
:1021C000462077308A01462020308A01462055304B
:1021D0008A01462073308A01462065308A014620F4
:1021E00072308A01462073308A0146208A017B22A0
:1021F000013061028A110A16031D03298A01592B35
:102200008A110A163F2B023061028A110A16031D39
:10221000AE298A011A268A150A122D248A01042061
:102220008A110A163F1C48298030A10080308A019B
:102230000E2055308A01462073308A0146206530D1
:102240008A01462072308A01462020308A014620C9
:1022500064308A01462065308A0146206C308A014C
:10226000462065308A01462074308A014620653058
:102270008A01462064308A0146200F30AF00A0302A
:102280008A0116218A110A163F2B8A110A16AB29D8
:102290008030A10080308A010E2055308A0146200E
:1022A00073308A01462065308A01462072308A01E7
:1022B000462020308A01462069308A01462073304A
:1022C0008A01462020308A0146206E308A0146204D
:1022D0006F308A01462074308A0146208030A10088
:1022E000C0308A010E2069308A0146206E308A0192
:1022F000462020308A01462074308A01462068300A
:102300008A01462065308A01462020308A01462015
:1023100064308A01462061308A01462074308A0187
:10232000462061308A01462062308A0146206130B1
:102330008A01462073308A01462065308A01462092
:1023400021308A0146200F30AF00A0308A011621CB
:102350008A110A163F2B8A110A163F2B033061029D
:102360008A110A16031DB22A8A0104208030A100B6
:1023700080308A010E2057308A01462061308A0160
:10238000462072308A0146206E308A01462069302C
:102390008A0146206E308A01462067308A01462035
:1023A00021308A0146208030A100C0308A010E20F1
:1023B00044308A01462065308A0146206C308A010B
:1023C000462065308A01462074308A0146206530F7
:1023D0008A01462020308A01462041308A01462069
:1023E0004C308A0146208A0146203F308A0146202F
:1023F0008030A10090308A010E2028308A014620CA
:1024000031308A01462029308A01462020308A0155
:1024100046203D308A01462020308A01462059302E
:102420008A01462045308A01462053308A014620E1
:102430008030A100D0308A010E2028308A01462049
:1024400032308A01462029308A01462020308A0114
:1024500046203D308A01462020308A0146204E30F9
:102460008A0146204F308A0146208A017B220130B2
:1024700061028A110A16031DA62A8A0104208030EF
:10248000A10080308A010E2041308A0146204C3064
:102490008A0146208A01462020308A014620553094
:1024A0008A01462073308A01462065308A01462021
:1024B00072308A01462073308A0146208030A100A4
:1024C000C0308A010E2077308A01462069308A01A7
:1024D00046206C308A0146208A01462020308A013D
:1024E000462062308A01462065308A01462020302D
:1024F0008A01462064308A01462065308A014620E0
:102500006C308A01462065308A01462074308A0189
:10251000462065308A01462064308A0146202130F9
:102520008A0146200F30AF00A0308A011621053005
:10253000DD000317FF308D0003135D088A01C920F9
:102540008A110A163F2B8A110A16AF2A023061023D
:102550008A110A16031DAF2A8A110A163F2B8A1107
:102560000A163F2B043061028A110A16031D3C2B08
:1025700005305D028A110A16031D372B8A010420DB
:102580008030A10080308A010E2054308A0146201C
:1025900068308A01462065308A01462072308A01FF
:1025A000462065308A01462020308A01462061306D
:1025B0008A01462072308A01462065308A01462011
:1025C00020308A0146206E308A0146206F308A0111
:1025D00046208030A100C0308A010E2055308A018B
:1025E000462073308A01462065308A0146207230C9
:1025F0008A01462073308A01462020308A01462015
:1026000069308A0146206E308A01462020308A01D6
:10261000462074308A01462068308A0146206530A1
:102620008A0146208030A10090308A010E2044307B
:102630008A01462061308A01462074308A01462092
:1026400061308A01462062308A01462061308A0169
:10265000462073308A01462065308A0146200F30BB
:10266000AF00A0308A0116218A110A163F2B8A0179
:10267000CF2F8A110A163F2B8A110A163F2B8A0187
:1026800004208030A10080308A010E2028308A0189
:10269000462031308A01462029308A0146205530B3
:1026A0008A01462073308A01462065308A0146201F
:1026B00072308A01462020308A01462054308A0137
:1026C000462061308A01462067308A01462020304A
:1026D0008A0146204D308A01462065308A01462015
:1026E0006E308A01462075308A0146208030A10074
:1026F000C0308A010E2028308A01462032308A01FB
:10270000462029308A01462056308A014620693009
:102710008A01462065308A01462077308A014620AA
:1027200020308A0146206C308A01462061308A01BF
:10273000462073308A01462074308A0146202030BA
:102740008A01462031308A01462034308A014620F1
:102750008030A10090308A010E2056308A01462038
:1027600065308A01462068308A01462069308A0136
:10277000462063308A0146206C308A01462065304D
:102780008A01462020308A01462075308A01462081
:1027900073308A01462065308A01462072308A01F2
:1027A000462073308A0146208A017B220130610273
:1027B0008A110A16031DE22B8A110A1631288A1182
:1027C0000A16862C023061028A110A16031D832C18
:1027D000FE308A01BF20C300CA3043028A110A16A4
:1027E000031D7D2C8A0104208030A10080308A01E5
:1027F0000E2054308A01462068308A014620653018
:102800008A01462072308A01462065308A014620BE
:1028100020308A01462069308A01462073308A01BF
:10282000462020308A0146206E308A0146206F30D3
:102830008A0146208030A100C0308A010E20553028
:102840008A01462073308A01462065308A0146207D
:1028500072308A01462020308A01462048308A01A1
:10286000462069308A01462073308A014620743040
:102870008A0146206F308A01462072308A01462044
:1028800079308A0146208030A10090308A010E20E4
:1028900069308A0146206E308A01462020308A0144
:1028A000462074308A01462068308A01462065300F
:1028B0008A01462020308A01462044308A01462081
:1028C00061308A01462074308A01462061308A01D5
:1028D000462062308A01462061308A0146207330EA
:1028E0008A01462065308A0146200F30AF00A030B3
:1028F0008A0116218A110A163F2B8A150A12FC2911
:102900008A110A16862C8A110A163F2B0715831680
:102910000711831287148316871083128A150A12EF
:10292000BA268A150A126B258A110A163F18E72C57
:102930008A0104208030A10080308A010E205430AA
:102940008A01462061308A01462067308A0146208C
:1029500020308A0146206E308A0146206F308A017D
:10296000462074308A01462020308A014620663095
:102970008A0146206F308A01462075308A01462040
:102980006E308A01462064308A0146200711831682
:1029900007118312BA010B303A028A110A16031882
:1029A000E02C023087068316871001308312AF00B7
:1029B0002C308A011621BA0A8A110A16031DCB2C63
:1029C00087108316871083128A110A16AE2D8A018A
:1029D00004208030A10080308A010E2055308A0109
:1029E00046206E308A01462069308A0146207430C4
:1029F0008A01462020308A01462063308A01462021
:102A000061308A0146206E308A01462020308A01DA
:102A100046206E308A0146206F308A01462077308A
:102A20008A0146208030A100C0308A010E20623029
:102A30008A01462065308A01462020308A014620DE
:102A400073308A01462074308A01462061308A0141
:102A5000462072308A01462074308A014620653053
:102A60008A01462064308A01462021308A014620AE
:102A7000BA0103303A028A110A1603184E2D3B0898
:102A80003A078A01BF20A9003A084A3E8400290873
:102A90008000BA0A8A110A16031D392D8A150A12F6
:102AA000CE27881683168812831287108316871004
:102AB00083120711831607118312BA0106303A02F6
:102AC0008A110A160318732D04308706831607111E
:102AD00001308312AF002C308A011621BA0A8A1104
:102AE0000A16031D5E2D071583160711EA3083129F
:102AF000AF0060308A011621881283168812831273
:102B000007118316071183128A0104208A110A16FD
:102B1000AE2D0816831608128312071183160711AB
:102B20008312BA010B303A028A110A160318A72D34
:102B3000023087068316871001308312AF002C30D5
:102B40008A011621BA0A8A110A16031D922D8710CE
:102B50008316871083128A110A16AE2D8A0104206B
:102B60008030A10080308A010E2047308A01462043
:102B70006F308A01462069308A0146206E308A0112
:102B8000462067308A01462020308A014620743072
:102B90008A0146206F308A01462020308A01462073
:102BA00073308A0146206C308A01462065308A01E4
:102BB00046208A01462070308A0146202E308A0144
:102BC00046208A0146200730AF00D0308A01162106
:102BD0000B168B108710831687108312071183162C
:102BE000071163000B1283128A0104208030A100B8
:102BF00080308A010E2049308A01462020308A0127
:102C000046206A308A01462075308A01462073309A
:102C10008A01462074308A01462020308A014620ED
:102C200077308A0146206F308A0146206B308A0156
:102C3000462065308A01462020308A0146207530C2
:102C40008A01462070308A01462021308A014620C0
:102C50008A0146200130AF00F4308A011621CA01F2
:102C6000CB01CC018A150A12CE27EA30AF006030C2
:102C70008A0116218A110A16AE2D4A08BD00BE012E
:102C8000BE15BD1FBE113E153D1F3E11BE14BD1E1B
:102C9000BE103E143D1E3E103E08C400BE01BE15CF
:102CA000BD1DBE113E153D1D3E11BE14BD1CBE1006
:102CB0003E143D1C3E103E08C5004B08BD00BE0141
:102CC000BE15BD1FBE113E153D1F3E11BE14BD1EDB
:102CD000BE103E143D1E3E103E08C600BE01BE158D
:102CE000BD1DBE113E153D1D3E11BE14BD1CBE10C6
:102CF0003E143D1C3E103E08C7004C08BD00BE01FE
:102D0000BE15BD1FBE113E153D1F3E11BE14BD1E9A
:102D1000BE103E143D1E3E103E08C800BE01BE154A
:102D2000BD1DBE113E153D1D3E11BE14BD1CBE1085
:102D30003E143D1C3E103E08C90008000730A200AA
:102D40001030A6007B30AE0014308A01D9201E302E
:102D50008A0115210730A2001030A6007B30AE009A
:102D600014308A01D92008000730A2001030A600D4
:102D70006B30AE0028308A01D9200A308A01152133
:102D80000730A2001030A6006130AE0028308A0162
:042D9000D92008003E
:02400E00313F40
:00000001FF
