:020000040000FA
:040000002CEF03F0EE
:08000800136A176A166E020E5E
:10001000076E1750135C02E11650125C040ED8B044
:10002000010ED8B4020E0714D8A4010E1200800EDF
:10003000016EFE0EDEEC00F0010EDEEC00F0750E3F
:10004000136E300E5BEF01F0016A018E216EFE0E21
:10005000DEEC00F02150DEEF00F0046A1A6E1B6A3D
:1000600000960450D8B40086050E036E270E176E56
:10007000100E0CD8030E176EE80E08D8176A640E1F
:1000800005D8176A0A0E02D81A5008D0166E1B50EF
:10009000136E1A50126ECBEC01F01250126E034E1A
:1000A0000096045003E0035CD8B008D01250D8A4E6
:1000B000009600B603D0300FDEEF00F01200A66A03
:1000C000A68E0900F55002E002D8FBD712001F6E81
:1000D0008C9C00008C9E959C959EF00E95161F5052
:1000E00000B295EF00F03A0E136E980E5BEC01F043
:1000F000330E1E6E2ED8130E136E880E5BEC01F0BD
:1001000028D8640E5AEC01F024D8640E5AEC01F0A1
:10011000220E1E6E1ED8280E07D80C0E05D8060E0D
:1001200003D800821F5001D000801E6E00A00BD0AB
:100130008C9E03080CE30BD8070E136ED00E5BECFD
:1001400001F0D88012000080FE0812E08C8E1E3A6A
:1001500000A000908C8CF00E83161E500F0B8312A3
:100160008C9C1E3A00B0F5D7320E5AEC01F0D880C4
:100170001F501200ABB2AB98AB8802C012F005C0A2
:1001800013F0166A176A000000D000009EBA13D060
:10019000E8681626172212221322D8A01200164849
:1001A000173CF1D73D0E166E176AEFD7ABB2AB987E
:1001B000AB889EAAFED7AE50D880120001BE67EF72
:1001C00000F0AA6AA96EA66AA680A850A94AAA2A1F
:1001D0001200AA6AA86EA66AA684550EA76EAA0E79
:1001E000A76EA682A6B2FED7A694A94AAA2A120092
:1001F000F56E0C00F6283F0B09E1840EA66E550E35
:10020000A76EAA0EA76EA68200D0A694F64AF72A79
:100210001200176E0F0EEA6E02C0E9FF051CE98896
:10022000E92AEC1602C0E9FF1750D8B41FD0F00E2F
:100230001B6E165080091A6EF00E1B06D8B41B6E8A
:10024000D8B41706D8B412D000D015D800D0E86AB8
:1002500008B0055016AE05501652D8B4E86A1A3EDA
:1002600002D0EF1AE6D700D00000E6D70550E988A3
:10027000E92AEC12120009500810D8B4082A0934EF
:100280000918E836093A0838E8460918093A010B0E
:100290000836081A093608501200176A166EFF0E43
:1002A0001626172200D0D8A01200030E136EDF0E00
:1002B00002D8F5D7136AE90F126EFC0E05E30000B1
:1002C00000001226FDE2000012261306F9E212B029
:1002D00000D012A202D000D00000120015501D184C
:1002E000800BF46E15AE06D0D880000E1256135651
:1002F000145615561DAE06D0D880000E1A561B5641
:100300001C561D56166A176A186A196A286A296ADD
:100310002A6A2B6A1D501C101B101A1023E0200E95
:10032000F36ED89012361336143615362836293621
:100330002A362B361A50285C1B5029581C502A5834
:100340001D502B5809E31A50285E1B50295A1C5087
:100350002A5A1D502B5AD880163617361836193699
:10036000F32EDFD7F4AE06D0D880000E16561756FF
:100370001856195616C012F017C013F018C014F012
:1003800019C015F028C01AF029C01BF02AC01CF0B3
:100390002BC01DF012001B6A1A6A100EF36E133484
:1003A0001A361B3616501A5C17501B5805E31650A8
:1003B0001A5E17501B5AD88012361336F32EEFD719
:1003C0001250120015C02BF014C02AF013C029F0EF
:1003D00012C028F02A501A02F3CF14F0F4CF15F00F
:1003E00029501B02F3501426F450152228501C02E9
:1003F000F3501426F45015222B501A02F3501526F0
:100400002A501B02F350152629501C02F3501526C2
:1004100028501D02F350152628501A02F3CF12F06F
:10042000F4CF13F029501A02F3501326F45014227B
:10043000000E152228501B02F3501326F4501422EC
:10044000000E15221200A66AA68E0900F55002E0E1
:10045000EE6EFBD712002DC033F07F0E2C5C326E97
:1004600002E2E86A4AD02D8E2C6A286A32501708B8
:10047000326E0CE2080E3226D8A03DD02DC02CF0F2
:100480002EC02DF02FC02EF02F6A0CD0080E325E39
:1004900008E32FC028F02EC02FF02DC02EF02D6ABB
:1004A000F5D73226325208E0D8902C322D322E3237
:1004B0002F322832322EF8D72CB01DD031AC09D0D3
:1004C00028AE07D02F2A05E12E2A03E12D2A01E1CB
:1004D0002D2A2C502FC02CF02F6E2D502EC02DF019
:1004E0002E6E33AE06D0D880000E2C562D562E56CA
:1004F0002F562C501200318AE8682C6E2D6E2E6E0D
:100500002F6E1200202020202020202000004154A7
:1005100054454D5054494E4720544F005245414494
:10052000205441472E2E2E2E00005468616E6B2001
:10053000596F75004E6F2054616720446574656380
:10054000746564004E6F2055736572730000476FC9
:10055000696E6720746F20736C6565702E2E0000C5
:1005600049206A75737420776F6B6520757021213F
:10057000000046696C65206E6F7420666F756E644E
:1005800000004E6F204D616E61676572205570648A
:1005900061746520486973746F7279206578697336
:1005A000747320666F722074686973204D6F647570
:1005B0006C6521004E6F20557365727300004E6F9D
:1005C0002055736572732068617665206265656E7B
:1005D0002061737369676E656420746F2074686945
:1005E00073204D6F64756C652100446F6E652055F6
:1005F000736572730000556E617574686F72697A05
:1006000065640000536C656570696E67204E6F7796
:1006100000004E6F205461670000536C656570697F
:100620006E67204E6F770000426164204361726400
:100630000000536C656570696E67204E6F7700002F
:100640004261642046696C650000536C65657069A1
:100650006E67204E6F770000F86A400E316E006AB8
:10066000060EAF6E200EAC6E900EAB6E000135EF35
:1006700012F0010E02014A5D0001D8A04CEF03F018
:100680000201495101EE43F0E926000EEA224BC275
:10069000EFFF000155EF03F000EE43F00201495176
:1006A000E926000EEA224BC2EFFF0001010E020113
:1006B000F86F4929010ED8B44A190001D8A472EF85
:1006C00003F0B7EC03F04252D8A4FBD70201F86B59
:1006D000496B4A6B362A000E372238223922000134
:1006E00075EF03F00201494B4A2B00011200020191
:1006F000496B4A6B4C530001D8A493EF03F0356A61
:1007000000EE43F03550E926000EEA22EF6A01EED2
:1007100043F03550E926000EEA22EF6A352AD8A4C4
:10072000EFD795EF03F038EC04F012005DEC0AF01F
:100730003E06000E3F5A34C012F0405004EC00F068
:10074000306E3F503E10D8B4A8EF03F0000E01D039
:10075000010E3012D8B4EAD73F503E10D8A4B5EFFE
:1007600003F0010E416EB6EF03F0416A1200020180
:10077000F06B010E426E0001D8903A6A36343B6E3F
:1007800037343C6E38343D6E94948B94580E02018D
:10079000436F3DC044F23CC045F23BC046F23AC014
:1007A00047F24869406A3E683F68000138EC0AF049
:1007B000BDDF010E415CD8A4E0EF03F02CEF04F0A4
:1007C000FE0E0201486F000156EC0AF0356A00EE99
:1007D00043F03550E926000EEA22EF500201486F3F
:1007E000000156EC0AF0352AD8A4F1D7356A01EE9B
:1007F00043F03550E926000EEA22EF500201486F1F
:10080000000156EC0AF0352AD8A4F1D70201486954
:10081000000156EC0AF056EC0AF040683E683F686A
:100820005DEC0AF034C0D3F281DF0F0E0201D31762
:10083000050ED35D0001D8B420EF04F02CEF04F0D6
:10084000010E415CD8A427EF04F02CEF04F0426ABB
:1008500094948B8437EF04F094948B840201F02BF2
:10086000030EF05D0001D8B037EF04F084D712001A
:100870000201F06B010E426E0001D8903A6A3634E4
:100880003B6E37343C6E38343D6E94948B94510EED
:100890000201436F3DC044F23CC045F23BC046F20A
:1008A0003AC047F24869000138EC0AF0406A3E68F5
:1008B0003F683CDF010E415CD8A461EF04F097EF84
:1008C00004F0FE0E406E3E683F6830DF010E415C72
:1008D000D8A46DEF04F097EF04F0356A5DEC0AF0F0
:1008E00000EE43F03550E926000EEA2234C0EFFF57
:1008F000352AD8A4F3D7356A5DEC0AF001EE43F04F
:100900003550E926000EEA2234C0EFFF352AD8A47C
:10091000F3D75DEC0AF05DEC0AF094948B8402014D
:100920004869000156EC0AF0426AA2EF04F0949480
:100930008B840201F02B030EF05D0001D8B0A2EF12
:1009400004F09AD71200010E0201515D0001D8A0F7
:10095000C4EF04F00201505101EE43F0E926000E0D
:10096000EA22EF50796F010E5025226E000E5121C0
:10097000236E225001EE43F0E926000EEA22EF50EA
:100980007A6F0001D5EF04F000EE43F00201505100
:10099000E926000EEA22EF50796F502900EE43F06D
:1009A000E926000EEA22EF507A6F000112000201E0
:1009B0005A516925226E5B516A21236E000E6B210C
:1009C000246E000E6C21256E2204D66F000E235873
:1009D000D76F000E2458D86F000E2558D96F695173
:1009E0007B25536F6A517C21546F6B517D21556F6C
:1009F0006C517E21566F000102015351D65D545156
:100A0000D7595551D8595651D9595651D919D8B0E5
:100A1000800A0001D8A8AAEF05F056C239F055C2E5
:100A200038F054C237F053C236F0010E02014C6F59
:100A300000015DDE0201506B516B0001020E0201EC
:100A4000515D0001D8B0A1EF05F0020169517B258D
:100A50000A6E6A517C210B6E6B517D210C6E6C51BC
:100A60007E210D6E53510A5C54510B5855510C5850
:100A700056510D5856510D18D8B0800A0001D8A80B
:100A800044EF05F0000E01D0010E306E156A146AB5
:100A9000136A020E126EDAC21AF0DBC21BF01C6A75
:100AA0001D6AE2EC01F015C025F014C024F013C05B
:100AB00023F012C022F002017F5122240A6E8051DD
:100AC00023200B6E000E24200C6E000E25200D6ED0
:100AD00000010DBE87EF05F00D52D8A485EF05F09B
:100AE0000C52D8A485EF05F0020151510B5C0001B6
:100AF000D8A087EF05F0D8A485EF05F00A500201D1
:100B0000505D0001D8B087EF05F0000E01D0010E56
:100B10003012D8B496EF05F016DF02017A51791140
:100B20000001D8A496EF05F0AFEF05F0020E020128
:100B300050270001D8A081D70201512B0001D8A471
:100B40007CD70201532B000E54235523562300015A
:100B5000D8A051D7010E02014D6F00011200020111
:100B60006951535D7B6F6A5154597C6F6B51555974
:100B70007D6F6C5156597E6F50C27FF251C280F228
:100B80007BC2C8F2C76BD8908031236E7F31226E52
:100B90002250C7272350C823DA6BDB6B7FC250F289
:100BA00080C251F20001020E0201515D0001D8B075
:100BB000F5EF05F0C8DE02017A5179110001D8A4E1
:100BC000E8EF05F00201DA4BDB2B0001EAEF05F05C
:100BD000F5EF05F0020E020150270001D8A0E2D780
:100BE0000201512B0001D8A4DDD7010E0201DC6FF8
:100BF000DD6B4D6B000112000201C66B526B0001F0
:100C0000080E0201525D0001D8B02CEF06F0010E73
:100C10000201C65D010ED8A4000E306E02EE93F004
:100C20005251EB500A6E010E0A52D8A4000E301237
:100C30000001D8B426EF06F0200EF36E02EE93F01A
:100C400002015251F3CFEBFF010EC66F000102010A
:100C5000522B0001D8A4D3D70201C66B080E526FE5
:100C600000010B0E0201525D0001D8B060EF06F0EA
:100C7000010E0201C65D010ED8A4000E306E080EF2
:100C8000525D02EE9CF0EB500A6E010E0A52D8A49F
:100C9000000E30120001D8B45AEF06F0080E02011F
:100CA000525D9C0FE96E020EEA6AEA22200EEF6E98
:100CB000010EC66F00010201522B0001D8A4D0D74B
:100CC00012009ADF0201636B646B65517125226E1D
:100CD00066517221236E000E7321246E000E742162
:100CE000256E2204D66F000E2358D76F000E2458AD
:100CF000D86F000E2558D96F74C256F273C255F2E0
:100D000072C254F271C253F2000102015351D65D16
:100D10005451D7595551D8595651D9595651D919B5
:100D2000D8B0800A0001D8A8F7EF07F056C239F012
:100D300055C238F054C237F053C236F0010E0201EA
:100D40004C6F000177EC03F00201506B516B000116
:100D5000020E0201515D0001D8B0EEEF07F0020172
:100D6000526B0001200E0201525D0001D8B0EBEF82
:100D700006F0020152515025D46F000E5121D56F5B
:100D8000010ED55D0001D8A0D7EF06F00201D451C5
:100D900001EE43F0E926000EEA22EFCF0AF002EE60
:100DA000A0F052510AC0EBFF0001E5EF06F000EEA3
:100DB00043F00201D451E926000EEA22EFCF0AF0F7
:100DC00002EEA0F052510AC0EBFF00010201522BCB
:100DD0000001D8A4C6D70201E2530001D8A409EF4C
:100DE00007F00201A0510A6E010E0A52D8A4000EAB
:100DF000306EA0510A6EE50E0A5C010ED8A4000EFA
:100E000030120001D8B407EF07F0FCEF07F0E3EF72
:100E100007F0010E0201E25D0001D8A469EF07F0BE
:100E20000201C66B526B0001080E0201525D000107
:100E3000D8B037EF07F002EEA0F002015251EB50AC
:100E40000A6E02EE93F05251EB500E6E0A500E5C99
:100E50000001D8B432EF07F0010E0201C66F0001A5
:100E600037EF07F00201522B0001D8A4DCD7080E9F
:100E70000201526F00010B0E0201525D0001D8B059
:100E80005FEF07F002EEA0F002015251EB500A6E44
:100E9000080E525D02EE9CF0EB500E6E0A500E5C96
:100EA0000001D8B45AEF07F0010E0201C66F00012D
:100EB0005FEF07F00201522B0001D8A4DBD702013B
:100EC000C6530001D8A467EF07F0FCEF07F0E3EF8B
:100ED00007F0020E0201E25D0001D8A4E3EF07F083
:100EE0000201AB510E6EF00E0E100A6E0B6A0A284C
:100EF0000B100001D8B4E3EF07F00201A0510A6E15
:100F00000A520001D8B4E3EF07F00201A0510A6EC3
:100F1000E50E0A5C0001D8B4E3EF07F00201AB5123
:100F20000E6E1E0E0E140A6E0B6A0B500A10000194
:100F3000D8A4E3EF07F00201634B642BE951645D31
:100F40000001D8A4E3EF07F00201E851635D00015E
:100F5000D8A4E3EF07F00201526B0001080E020172
:100F6000525D0001D8B0C4EF07F002EEA0F002011C
:100F70005251EBCF0AF002EE93F052510AC0EBFF50
:100F8000522B0001D8A4E9D7080E0201526F0001CC
:100F90000B0E0201525D0001D8B0E1EF07F0080E20
:100FA0000201525D0A6E02EEA0F05251EBCF0EF03C
:100FB00002EE9CF00A500EC0EBFF522B0001D8A4A9
:100FC000E6D7FCEF07F0200E020150270001D8A061
:100FD000BED60201512B0001D8A4B9D60201532B71
:100FE000000E5423552356230001D8A08DD6010EA0
:100FF00002014E6F0001120002017151535D876FB3
:1010000072515459886F73515559896F745156599B
:101010008A6F50C28BF251C28CF24E6B00011200EB
:10102000010E0201C55D0001D8A023EF08F0020106
:10103000C45101EE43F0E926000EEA224FC2EFFF51
:1010400000012CEF08F000EE43F00201C451E92644
:10105000000EEA224FC2EFFF0001120085C2C4F267
:1010600086C2C5F281C2C8F20201C76BD890863130
:10107000236E8531226E2250C7272350C823C74BC9
:10108000C82B00010201DF530001D8A44FEF08F084
:10109000020E0201DE5D0001D8A063EF08F0C7C2B6
:1010A0004FF2BEDF0201C44BC52BC8C24FF2000194
:1010B000B7DF0201C44BC52BC74BC82BDE07000EA0
:1010C000DF5B0001DED712007BC2C8F20201C76BF2
:1010D000D8908031236E7F31226E2250C727235053
:1010E000C823C7C24FF200019BDF0201C44BC52BCE
:1010F000C8C24FF2000194DF120002014F690001E3
:101100008FDF0201C44BC52B00018ADF12000201F0
:10111000E32B000EE423E523E623E351CE5DE45107
:10112000CF59E551D059E651D159E651D119D8B02E
:10113000800A0001D8B8A4EF08F00201CE2B000EFF
:10114000CF23D023D123E78100010201914B922BC1
:101150009151615D925162590001D8B0F2EF09F0EE
:1011600002018D2B000E8E238F239023CD2BCD518A
:10117000575D0001D8B0ECEF09F00201E731000142
:10118000D8B052EF09F0C7C212F0C8C213F0146A07
:10119000156A1D6A1C6A010E1B6E1A6A6EEC01F05C
:1011A00015C07EF214C07DF213C07CF212C07BF237
:1011B000C7C27FF20201806BD8907F3780377B51A6
:1011C0006925366E7C516A21376E7D516B21386EF0
:1011D0007E516C21396E010E4C6F000177EC03F0EB
:1011E0007FC250F280C251F2A3EC04F079C2C7F280
:1011F0007AC2C8F2FE0E0201C725226EFF0EC82178
:10120000236EFF0E246A2422256A252225C015F0AC
:1012100024C014F023C013F022C012F01D6A1C6A0F
:101220001B6A57C21AF0E2EC01F015C090F214C02C
:101230008FF213C08EF212C08DF275518D27765148
:101240008E2377518F237851902390C239F08FC22B
:1012500038F08EC237F08DC236F0010E4C6F0001AF
:1012600077EC03F0010E0201CD6FC7C212F0C8C2C5
:1012700013F0146A156A1D6A1C6A1B6E1A6A6EECFA
:1012800001F015C07EF214C07DF213C07CF212C0D2
:101290007BF2C7C27FF2806BD8907F378037000126
:1012A000E9EF09F00201DC4BDD2BDC51DA5DDD51A9
:1012B000DB590001D8B0E2EF09F07FC285F280C2AD
:1012C00086F27EC284F27DC283F27CC282F27BC24D
:1012D00081F2DCC2E0F2DDC2E1F2DAC2DEF2DBC2B0
:1012E000DFF2D7EC04F0010E02014D5D0001D8A43D
:1012F0007BEF09F01200020181516925C06F825114
:101300006A21C16F83516B21C26F84516C21C36FFD
:10131000C3C239F0C2C238F0C1C237F0C0C236F021
:10132000010E4C6F000177EC03F098DECDDEB7ECD8
:1013300003F0020181516D25366E82516E21376EA8
:1013400083516F21386E84517021396E0001B7ECE2
:1013500003F0FE0E0201C725226EFF0EC821236E88
:10136000FF0E246A2422256A252225C015F024C0F8
:1013700014F023C013F022C012F01D6A1C6A1B6A0D
:1013800057C21AF0E2EC01F015C090F214C08FF2CF
:1013900013C08EF212C08DF275518D2776518E23B7
:1013A00077518F237851902390C239F08FC238F053
:1013B0008EC237F08DC236F04C6B000177EC03F033
:1013C000E5EF09F00201C74BC82B0001010E020135
:1013D000CD6F0001EEEF09F038EC04F0010E0201D0
:1013E000916F926B0001D2C24BF239EC03F0020113
:1013F0004D6B00011200010E0201E26F000161EC71
:1014000006F01200020E02014A5D0001D8A016EF9C
:101410000AF00201496B4A6B362A000E3722382245
:101420003922010E4C6F000177EC03F0010E02012E
:101430004A5D0001D8A029EF0AF00201495101EEEE
:1014400043F0E926000EEA22EF504B6F000132EF25
:101450000AF000EE43F002014951E926000EEA22AB
:10146000EF504B6F00010201494B4A2B0001120063
:1014700043C2C9FFC7A0FED7C9CF34F044C2C9FFD9
:10148000C7A0FED7C9CF34F045C2C9FFC7A0FED759
:10149000C9CF34F046C2C9FFC7A0FED7C9CF34F0C8
:1014A00047C2C9FFC7A0FED7C9CF34F048C2C9FFA1
:1014B000C7A0FED7C9CF34F01200C968C7A0FED7B5
:1014C000C9CF34F01200400EC76E9494949A94964B
:1014D000948894948B840201436944694569466900
:1014E000476948690001C4DFC3DF640E4DEC01F0B9
:1014F00094948B94400E0201436F446B456B466B92
:10150000476B950E486F0001B3DF010E406E3E68D9
:101510003F6A96EC03F0010E415CD8A495EF0AF007
:1015200094948B84010E426E12003568410E0201C4
:10153000436F446B456B466B476B4869000198DF0E
:10154000406A3E683F6A96EC03F03506010E415250
:10155000D8A4000E306E010E3552D8A4000E301201
:10156000D8B4E4D73552D8A4BBEF0AF094948B8456
:10157000010E426E120094948B84020148690001AE
:1015800095DF0201496B4A6B426A0001120033DFAA
:1015900002014E530001D8B4D3EF0AF0010E02014C
:1015A0004D6F000112000201BA51C76FBB51C86FE5
:1015B000BC51CE6FBD51CF6FBE51D06FBF51D16FF7
:1015C000FE0EC725226EFF0EC821236EFF0E246A71
:1015D0002422256A252225C015F024C014F023C03A
:1015E00013F022C012F01D6A1C6A1B6A57C21AF05F
:1015F000E2EC01F015C090F214C08FF213C08EF22D
:1016000012C08DF275518D2776518E2377518F231D
:1016100078519023010ECD6F90C239F08FC238F00F
:101620008EC237F08DC236F04C6F000177EC03F0BC
:10163000010E425CD8A422EF0BF0010E02014D6FA7
:10164000000112000201916B926BE66BE56BE46B9B
:10165000E36BD896D1BFD8860001D8B63EEF0BF029
:101660000201CE51CF11D011D1110001D8B43EEFFB
:101670000BF00201E791000140EF0BF00201E7815E
:1016800000010201F86B010EDA6FDB6B4D6B00019C
:1016900012000201E7310001D8B008EF0CF002019E
:1016A000914B922B9151615D925162590001D8B0DA
:1016B000EDEF0BF0010E0201F85D0001D8A468EF18
:1016C0000BF0B7EC03F04252D8A4FBD70201F86B41
:1016D000000102018D2B000E8E238F239023CD2B32
:1016E000CD51575D0001D8B0E8EF0BF0C7C212F042
:1016F000C8C213F0146A156A1D6A1C6A010E1B6EBB
:101700001A6A6EEC01F015C07EF214C07DF213C0AF
:101710007CF212C07BF2C7C27FF20201806BD890CC
:101720007F3780377B516925366E7C516A21376E51
:101730007D516B21386E7E516C21396E010E4C6FDC
:10174000000177EC03F07FC250F280C251F2A3ECAB
:1017500004F079C2C7F27AC2C8F2FE0E0201C725B0
:10176000226EFF0EC821236EFF0E246A2422256AF2
:10177000252225C015F024C014F023C013F022C088
:1017800012F01D6A1C6A1B6A57C21AF0E2EC01F0E3
:1017900015C090F214C08FF213C08EF212C08DF2F9
:1017A00075518D2776518E2377518F237851902351
:1017B00090C239F08FC238F08EC237F08DC236F049
:1017C000010E4C6F000177EC03F0010E0201CD6FAA
:1017D0000001010E0201916F926B000113DE020104
:1017E000E32B000EE423E523E623CE51E35DCF5146
:1017F000E459D051E559D151E659E651D119D8B043
:10180000800A0001D8A807EF0CF00201E78100016F
:101810001200C6CFC6FFC68A56DE42C0EBF2010EEA
:101820000201EB5D0001D8A41BEF0CF0010E0201D8
:101830004D6F00011200396A386A376A366A010E44
:1018400002014C6F000177EC03F043500A6EEB0E7F
:101850000A5C010ED8A4000E306E45500A6E900E40
:101860000A5C010ED8A4000E3016D8B43EEF0CF07E
:101870000201676B686B000152EF0CF043500A6E77
:10188000E90E0A5CD8A44BEF0CF00201676B686BA1
:10189000000151EF0CF0020109510E6E0EC067F20B
:1018A000686B000167C236F068C237F0386A396A7F
:1018B000010E02014C6F000177EC03F04E50020163
:1018C000616F4F50626F5050576F5150586F525068
:1018D000596F53505C6F5450636F5550646F59503B
:1018E0005A6F5A505B6F63505D6F64505E6F655006
:1018F0005F6F6650606F58516725696F5951682155
:101900006A6F000E6B6B6B236C6B58516725226EF0
:1019100059516821236E000E246A2422256A5A51E7
:1019200022246D6F5B5123206E6F000E24206F6F99
:10193000000E2520706F156A146A136A5CC212F0DB
:101940005AC21AF05BC21BF01C6A1D6AE2EC01F07D
:1019500015C074F214C073F213C072F212C071F2A7
:1019600058516725226E59516821236E000E246A52
:101970002422256A22507127235072232450732376
:10198000255074236451200DF3CF66F26351200D6E
:10199000F3CF65F2F450662765C212F066C213F009
:1019A00061C216F062C217F0CBEC01F0656F13C094
:1019B00066F265517125756F66517221766F000E62
:1019C0007321776F000E7421786F67515D25226E49
:1019D00068515E21236E000E5F21246E000E60218F
:1019E000256E2204366E000E2358376E000E2458E2
:1019F000386E000E2558396E7551365C226E765160
:101A00003758236E77513858246E78513958256EDF
:101A10002228366E000E2320376E000E2420386EEA
:101A2000000E2520396E39C015F038C014F037C0CB
:101A300013F036C012F01D6A1C6A1B6A57C21AF0F6
:101A40006EEC01F015C039F014C038F013C037F057
:101A500012C036F0010E3624CB6F000E3720CC6F4B
:101A600002EE93F0050EF76E040EF66E23EC02F014
:101A7000EF6A02EE9CF0200EEE6EEE6EEE6EEF6AF6
:101A8000010EF16FF26FF36BF46BF56BF66BF76BA6
:101A9000E86BE96B4D6B00011200010E0201F85D6D
:101AA0000001D8A459EF0DF0B7EC03F04252D8A4CE
:101AB000FBD7020187517125C06F88517221C16F18
:101AC00089517321C26F8A517421C36FC3C239F027
:101AD000C2C238F0C1C237F0C0C236F0010E4C6F3E
:101AE000000177EC03F01C0E02018B25C46F000E81
:101AF0008C21C56FCEC24FF2000110EC08F002013C
:101B0000C44BC52BCFC24FF2000110EC08F002010C
:101B1000C44BC52BD0C24FF2000110EC08F00201FB
:101B2000C44BC52BD1C24FF2000110EC08F0160EC9
:101B300002018B25C46F000E8C21C56F00010FECD4
:101B40000EF0B7EC03F00201E7310001D8A0F1EF8D
:101B50000DF0D8960201E7A1D8860001D8B6F1EFC2
:101B60000DF07FC285F280C286F27EC284F27DC211
:101B700083F27CC282F27BC281F20201815169252B
:101B8000C06F82516A21C16F83516B21C26F845132
:101B90006C21C36FC3C239F0C2C238F0C1C237F082
:101BA000C0C236F0010E4C6F000177EC03F0DCC2CE
:101BB000DEF2DDC2DFF22EEC08F07DEC08F0B7ECCF
:101BC00003F0020181516D25366E82516E21376E10
:101BD00083516F21386E84517021396E0001B7EC4A
:101BE00003F01200F4C222F0236AF5C226F0276A3D
:101BF000010E2616276A2750640DF3CF27F02650D2
:101C0000640DF3CF26F0F45027262250262402013B
:101C10004F6F000110EC08F00201C44BC52B00010E
:101C2000F5C222F0236AD89023322232F6C226F07F
:101C3000276A050ED89026362736E82EFBD7225085
:101C4000261002014F6F000110EC08F00201C44B96
:101C5000C52BF6C222F0236A2332223223322232EB
:101C6000233222321F0E2316F7C226F0276A030EF4
:101C7000D89026362736E82EFBD7225026104F6FF5
:101C8000000110EC08F00201C44BC52BF2C223F096
:101C9000226AD89023322232233222322332223255
:101CA000F15122104F6F000110EC08F00201C44BFB
:101CB000C52BF2C222F0236A23322232233222328F
:101CC000233222321F0E2316F3C226F0276A140E87
:101CD0002626000E2722D890263627362250261098
:101CE0004F6F000110EC08F012000201FA6B7E6BDE
:101CF0007D6B7C6B7B6B7F6B806BDA6BDB6B0001CE
:101D0000D7EC04F0010E02014D5D0001D8A48AEF6A
:101D10000EF012000201E26B000161EC06F0010E10
:101D200002014E5D0001D8A49BEF0EF0010E0201EE
:101D30004D6F00011200020187517125C06F88515B
:101D40007221C16F89517321C26F8A517421C36F8F
:101D5000C3C239F0C2C238F0C1C237F0C0C236F0D7
:101D6000010E4C6F000177EC03F00201526B000191
:101D7000200E0201525D0001D8B0CFEF0EF002013B
:101D800052518B25C46F000E8C21C56F4F6B000123
:101D900010EC08F00201522B0001D8A4E8D7FCECAB
:101DA00005F00201526B0001080E0201525D0001B4
:101DB000D8B0EFEF0EF0020152518B25C46F000E28
:101DC0008C21C56F02EE93F05251EB504F6F000122
:101DD00010EC08F00201522B0001D8A4E4D7080E41
:101DE0000201526F00010B0E0201525D0001D8B0DA
:101DF0000FEF0FF0020152518B25C46F000E8C21A2
:101E0000C56F080E525D02EE9CF0EB504F6F000163
:101E100010EC08F00201522B0001D8A4E3D70B0EFE
:101E200002018B25C46F000E8C21C56F200E4F6FF1
:101E3000000110EC08F00D0E02018B25C46F000E9E
:101E40008C21C56F0001CEDE1A0E02018B25C46FF6
:101E5000000E8C21C56FC7C24FF2000110EC08F0D4
:101E60000201C44BC52BC8C24FF2000110EC08F0B0
:101E7000B7EC03F0FE0E0201C725226EFF0EC8214B
:101E8000236EFF0E246A2422256A252225C015F020
:101E900024C014F023C013F022C012F01D6A1C6A83
:101EA0001B6A57C21AF0E2EC01F015C090F214C0A0
:101EB0008FF213C08EF212C08DF275518D277651BC
:101EC0008E2377518F2378519023010ECD6F90C2CE
:101ED00039F08FC238F08EC237F08DC236F04C6BBD
:101EE000000177EC03F00201916B926BD16BD06B28
:101EF000CF6BCE6BE66BE56BE46BE36BE781010EBA
:101F0000FA6F00011200FBEC09F002014E530001D0
:101F1000D8B490EF0FF0010E02014D6F00011200D6
:101F20000201BA51C76FBB51C86FBC51CE6FBD51D2
:101F3000CF6FBE51D06FBF51D16FD1C2EFF2D0C2BF
:101F4000EEF2CFC2EDF2CEC2ECF2396A386A376AED
:101F5000366A000161C212F062C213F0146A156A97
:101F60001D6A1C6A1B6A57C21AF0E2EC01F015C028
:101F700011F014C010F013C00FF012C00EF00201E7
:101F8000EC510E5CED510F58EE511058EF511158B5
:101F9000EF511118D8B0800A0001D8B849EF10F0FD
:101FA000C7C212F0C8C213F0146A156A1D6A1C6A0F
:101FB000010E1B6E1A6A6EEC01F015C07EF214C0A1
:101FC0007DF213C07CF212C07BF2C7C27FF2020125
:101FD000806BD8907F3780377B5169250E6E7C519E
:101FE0006A210F6E7D516B21106E7E516C21116E36
:101FF0000E50365C0001D8A40DEF10F00F50375C86
:10200000D8A40DEF10F01050385CD8A40DEF10F0EC
:102010001150395CD8B41FEF10F002017B516925D3
:10202000366E7C516A21376E7D516B21386E7E5140
:102030006C21396E010E4C6F000177EC03F07FC20A
:1020400050F280C251F2A3EC04F079C2C7F27AC216
:10205000C8F261C212F062C213F0146A156A1D6AF6
:102060001C6A1B6A57C21AF0E2EC01F015C025F099
:1020700014C024F013C023F012C022F02250020139
:10208000EC5F2350ED5B2450EE5B2550EF5B0001CD
:1020900060D7C7C212F0C8C213F0146A156A1D6A6D
:1020A0001C6A010E1B6E1A6A6EEC01F015C07EF2FE
:1020B00014C07DF213C07CF212C07BF2C7C27FF263
:1020C0000201806BD8907F378037EF51EE11ED1110
:1020D000EC110001D8A472EF10F00201CD6B0001E9
:1020E00090EF10F00201EC05226E000EED59236E08
:1020F000000EEE59246E000EEF59256E25C015F026
:1021000024C014F023C013F022C012F061C21AF0F0
:1021100062C21BF01C6A1D6A6EEC01F012C0CDF2A7
:102120000001FE0E0201C725226EFF0EC821236E9C
:10213000FF0E246A2422256A252225C015F024C01A
:1021400014F023C013F022C012F01D6A1C6A1B6A2F
:1021500057C21AF0E2EC01F015C090F214C08FF2F1
:1021600013C08EF212C08DF2CD518D258D6F000EF1
:102170008E218E6F000E8F218F6F000E9021906F39
:1021800075518D2776518E2377518F237851902367
:10219000CD2B90C239F08FC238F08EC237F08DC28D
:1021A00036F0010E4C6F000177EC03F0010E425C3B
:1021B000D8A4E0EF10F0010E02014D6F00011200F3
:1021C000EFC215F0EEC214F0EDC213F0ECC212F043
:1021D00061C21AF062C21BF01C6A1D6A6EEC01F04B
:1021E0001AC091F21BC092F291C249F292C24AF215
:1021F0000201925191110001D8A419EF11F0D89663
:102200000201EFBFD8860001D8B619EF11F0020124
:10221000EC51ED11EE11EF110001D8B419EF11F0EE
:1022200061C291F262C292F2362A000E372238223F
:102230003922010E0201DC6FDD6BDA6FDB6BE781A7
:10224000D1C2E6F2D0C2E5F2CFC2E4F2CEC2E3F2EE
:102250004D6B00011200FBEC09F002014E5300012E
:10226000D8B438EF11F0010E02014D6F00011200D9
:102270000201BA51C76FBB51C86F8BC2C4F28CC286
:10228000C5F2E50E4F6F000110EC08F0B7EC03F05B
:1022900002014C6B0001C7C212F0C8C213F0146AED
:1022A000156A1D6A1C6A010E1B6E1A6A6EEC01F03B
:1022B00015C07EF214C07DF213C07CF212C07BF216
:1022C000C7C27FF20201806BD8907F3780377B5185
:1022D00069250E6E7C516A210F6E7D516B21106E47
:1022E0007E516C21116E0E50365C0001D8A488EF2F
:1022F00011F00F50375CD8A488EF11F01050385C03
:10230000D8A488EF11F01150395CD8B4BEEF11F0A9
:1023100002014C530001D8B4ACEF11F0B7EC03F05C
:1023200002016951365C226E6A513758236E6B5137
:102330003858246E6C513958256E6D512224366EF2
:102340006E512320376E6F512420386E7051252036
:10235000396E0001B7EC03F002017B516925366E3E
:102360007C516A21376E7D516B21386E7E516C2114
:10237000396E010E4C6F000177EC03F07FC250F212
:1023800080C251F2A3EC04F079C2C7F27AC2C8F25B
:102390007FC2C4F280C2C5F202014F6B000110EC93
:1023A00008F0010E02017F25C46F000E8021C56F69
:1023B000000110EC08F00201C7290001D8A4E3EFE6
:1023C00011F00201C8290001D8A464D7B7EC03F0CA
:1023D00002016951365C226E6A513758236E6B5187
:1023E0003858246E6C513958256E6D512224366E42
:1023F0006E512320376E6F512420386E7051252086
:10240000396E0001B7EC03F002014D6B00011200C0
:1024100002EEFDF0E86AEE5202E0E83EFCD702016F
:10242000FB6FFB07FC6B00010201FC51FB5D00012F
:10243000D8A034EF12F002EEFDF00201FC51E926C3
:10244000000EEA22EF50D26F000187EC08F0010E77
:1024500002014D5D0001D8A42FEF12F0120002011D
:10246000FC2B0001D8A4DFD71200070EB46E0F0EAC
:10247000C16E07EC16F0C80E4DEC01F092928992F5
:1024800092908990948295988C98020EE1EC00F0DD
:102490000301E16FE1290001D8A473EF12F0010EEE
:1024A000A96EAA6A000EEAEC00F0020EA96EAA6AF2
:1024B000000EEAEC00F0030EA96EAA6A000EEAEC28
:1024C00000F0040EA96EAA6A000EEAEC00F0050EF8
:1024D000A96EAA6A1E0EEAEC00F0060EA96EAA6AA0
:1024E000010EEAEC00F082B28FEF12F07EEC14F0F5
:1024F0000301DD530001D8B482EF12F0FDEC15F0BA
:102500002BEF18F06CEC13F0010E0301DD5D000100
:10251000D8A48FEF12F0FDEC15F05EEF18F0A9ECE7
:1025200012F0010E0301DD5D0001D8A49CEF12F052
:10253000FDEC15F0F5EF17F0A2EC14F00301DD53FC
:102540000001D8A4A8EF12F0FDEC15F0C7EF17F0CA
:10255000CAD792908980929289820CEC16F017EC7F
:1025600000F0800E016E24EC00F0050EF76E0E0EEA
:10257000F66E5FEC00F0800E016EC00E24EC00F0F1
:10258000050EF76E1C0EF66E5FEC00F095988C88C9
:102590000A0E4DEC01F0300E026E750E056EBAECAF
:1025A00000F0D8A052EF13F08208D8A4F8D703EEB9
:1025B000C6F00A0EF36ED880BAEC00F0D8A052EF45
:1025C00013F0EE6EF32EF7D7D6EC00F00301DC6FBC
:1025D000D6EC00F0DB6F95988C98830EDB5D0001E4
:1025E000D8B4F4EF12F0B5D70301DF6B00010A0E87
:1025F0000301DF5D0001D8B03BEF13F003EEC6F03E
:102600000301DF51EB500E6EB00E0E5C0001D8A03E
:102610001EEF13F0BA0E0E5CD8B01EEF13F003EEEF
:10262000C6F00301DF51EB50E16FE19F03EEC6F00E
:10263000DF51E1C3EBFF000136EF13F0810E0E5CBA
:10264000D8A035EF13F0870E0E5CD8B035EF13F03D
:1026500003EEC6F00301DF51EB50E16FE19FE18D26
:1026600003EEC6F0DF51E1C3EBFF00010301DF2BF6
:102670000001D8A4BBD7929289929290898017ECDE
:1026800000F0050EF76E2A0EF66E5FEC00F0030EFA
:10269000176EE80E4EEC01F00301DD6B000107EC54
:1026A00016F0120095988C9807EC16F017EC00F0D5
:1026B000800E016E24EC00F0050EF76E340EF66EFF
:1026C0005FEC00F0070E176ED00E4EEC01F0010E1D
:1026D0000301DD6F00011200D3EC15F002EE93F060
:1026E00013EED0F0070EF36EE65003E0EE6EF32E1D
:1026F000FBD7EF6A02EE9CF0540EEE6E580EEE6EB3
:10270000540EEE6EEF6AC7EC0AF04DC2DDF3010E17
:102710000301DD5D0001D8A493EF13F021EC17F065
:102720008DEC16F01200010EA96EAA6A000EEAECFA
:1027300000F00301DE6B0001D8960201E7B1D886F4
:102740000001D8B67EEF14F049EC0BF04BC2DDF37C
:102750007B0E0301DD5D0001D8A4BDEF13F049EC51
:102760000BF04BC2E1F3040EA96EAA6A0301E1511A
:10277000EAEC00F000017DEF14F07D0E0301DD5D59
:102780000001D8A4D2EF13F049EC0BF04BC2E1F3F7
:10279000050EA96EAA6A0301E151EAEC00F00001FE
:1027A0007DEF14F07E0E0301DD5D0001D8A4E7EF9C
:1027B00013F049EC0BF04BC2E1F3060EA96EAA6AC6
:1027C0000301E151EAEC00F000017DEF14F03A0E54
:1027D0000301DD5D0001D8A468EF14F00301DF6B95
:1027E00000010A0E0301DF5D0001D8B006EF14F00E
:1027F00049EC0BF04BC20EF003EEC6F00301DF51C3
:102800000EC0EBFFDF2B0001D8A4EAD70301DE5195
:10281000100DF3CF22F0F4CF23F0500E2224F66EE9
:102820009C0E2320F76EC651F8EC00F0C751F8EC6F
:1028300000F0C851F8EC00F0C951F8EC00F0CA51B2
:10284000F8EC00F0CB51F8EC00F0CC51F8EC00F0D3
:10285000CD51F8EC00F0500E226E9C0E236EDEC3BC
:1028600026F0276A2750100DF3CF27F02650100DC1
:10287000F3CF26F0F4502726265022262750232275
:10288000080E2224F66E000E2320F76ECE51F8ECCF
:1028900000F0CF51F8EC00F0000EF8EC00F0000E64
:1028A000F8EC00F0000EF8EC00F0000EF8EC00F090
:1028B000000EF8EC00F0000EF8EC00F0DE2B010E3C
:1028C000A96EAA6ADE51EAEC00F000017DEF14F077
:1028D000400E0301DD5D0001D8A478EF14F072EC26
:1028E00015F021EC17F08DEC16F012007DEF14F0CE
:1028F000010E0301DD6F000112001DD70301DF6B24
:102900000001030E0301DF5D0001D8B0A1EF14F058
:10291000000EC66E000EC76E000EC86E000EC96EA9
:10292000C68A09EC0CF04DC2DDF30301DD53000152
:10293000D8A49CEF14F012000301DF2B0001D8A4EF
:10294000DFD712000301DD6B010EE1EC00F00E6E2B
:102950000E520001D8A4BCEF14F017EC00F0050EE5
:10296000F76E440EF66E5FEC00F0030E176EE80E85
:102970004EEC01F0C7EF17F00301DE6B500EE26F73
:102980009C0EE36F00010301DF6BDD6B0001E2C30E
:1029900022F0E3C323F0100E266E276A27C012F040
:1029A0000301DE512602F3CF26F0F4CF27F0120206
:1029B000F35027262650222627502322DF51222497
:1029C000F66E000E2320F76EA66AA68E0800F5CFDD
:1029D000E1F303EEC6F0DF51EB500E6EE1510E5CF9
:1029E0000001D8A4FBEF14F0010E0301DD6FDF2B13
:1029F0000001FFEF14F00301DD6B0A0EDF6F000131
:102A00000A0E0301DF5D0001D8A0C0D7010E03014B
:102A1000DD5D0001D8A40EEF15F012000301DE2BDE
:102A2000010EE1EC00F00E6EDE510E5C0001D8B03C
:102A3000A9D71200020EE1EC00F00301E16FE151B1
:102A40000B0DF3CF22F0F4CF23F0100E2224A96E49
:102A5000000E2320AA6E3A0EEAEC00F0010EDF6FA2
:102A600000010B0E0301DF5D0001D8B05EEF15F031
:102A7000100E226E236A0B0E266E276A27C012F0F4
:102A80000301E1512602F3CF26F0F4CF27F0120222
:102A9000F35027262650222627502322DF512224B6
:102AA000A96E000E2320AA6E03EEC6F0DF51EB5094
:102AB000EAEC00F0DF2B0001D8A4D2D70301E12B10
:102AC000510EE15D0001D8A068EF15F00301E16B44
:102AD0000001020EA96EAA6A0301E151EAEC00F0BE
:102AE000000112000301DF6B0001040E0301DF5D32
:102AF0000001D8B08AEF15F049EC0BF04BC20EF094
:102B000003EED7F00301DF510EC0EBFFDF2B000116
:102B1000D8A4EAD7030EE1EC00F00301E16FDF6B0C
:102B20000001040E0301DF5D0001D8B0BFEF15F016
:102B3000900E226E030E236E040E266E276A27C0A7
:102B400012F00301E1512602F3CF26F0F4CF27F073
:102B50001202F35027262650222627502322DF5127
:102B60002224A96E000E2320AA6E03EED7F0DF51B7
:102B7000EB50EAEC00F0DF2B0001D8A4D1D7030121
:102B8000E12B0B0EE15D0001D8A0C9EF15F00301A8
:102B9000E16B0001030EA96EAA6A0301E151EAECA0
:102BA00000F0000112000301DF6B0001080E0301B9
:102BB000DF5D0001D8B0F2EF15F0400E0301DF2514
:102BC000F66EF76A9C0EF722A66AA68E0800F5CF6D
:102BD0000EF003EED0F0DF510EC0EBFFDF2B000153
:102BE000D8A4E3D71200820E026E010E056E6E0E9F
:102BF000166E320E09EC01F01200820E026E010E0A
:102C0000056E6E0E166EF40E09EC01F0120092962F
:102C10008986959A8C9A1200959A8C8A92968996B2
:102C2000120017EC00F0800E016E24EC00F0050E8F
:102C3000F76E4E0EF66E5FEC00F0070E176ED00EBC
:102C40004EEC01F0F288F2920300F29817EC00F0DB
:102C5000800E016E24EC00F0050EF76E600EF66E2D
:102C60005FEC00F0070E176ED00E4EEC01F0D9D7D6
:102C700002EE93F013EED0F0070EF36EE65003E091
:102C8000EE6EF32EFBD7570EEE6EEF6A02EE9CF05F
:102C9000540EEE6E580EEE6E540EEE6EEF6AFBECB6
:102CA00009F04EC2DDF30301DD530001D8A45BEF50
:102CB00016F02BEC11F075EC0EF04DEC0DF002EE71
:102CC00093F013EED0F0070EF36EE65003E0EE6ED5
:102CD000F32EFBD7570EEE6EEF6A02EE9CF0540E09
:102CE000EE6E580EEE6E540EEE6EEF6A83EC0FF041
:102CF0004DC2DDF3010E0301DD5D0001D8A48AEFB2
:102D000016F017EC00F0050EF76E720EF66E5FEC23
:102D100000F003004DEC0DF0120045DF02EE93F0E1
:102D200013EED0F0070EF36EE65003E0EE6EF32ED6
:102D3000FBD7EF6A02EE93F0EE50FEE1ED524D0E3E
:102D4000EE6EEF6A02EE9CF0540EEE6E580EEE6ED2
:102D5000540EEE6EEF6A2BEC11F075EC0EF0030ED4
:102D6000E1EC00F00301E16FE1530001D8A4C7EFEB
:102D700016F002EEFDF0050EF76E820EF66E23ECF5
:102D800002F0EF6A08EC12F04DEC0DF0120002EECA
:102D9000FDF0DDC3EEFFEF6A08EC12F07C0EE8CF29
:102DA000D2F287EC08F00301DE6B00010301DF6B58
:102DB0000001050E0301DF5D0001D8B00EEF17F032
:102DC000E2C322F0E3C323F0E1C326F0276A26061C
:102DD000000E275A27500A0DF3CF27F026500A0D70
:102DE000F3CF26F0F4502726265022262750232200
:102DF0000301DF512224F66E000E2320F76EA66A2F
:102E0000A68E0800F5CFDDF30001DDC3D2F287EC1A
:102E100008F00301DF2B0001D8A4CAD73A0EE8CF8F
:102E2000D2F287EC08F00301E107800E016EE15158
:102E30002DEC00F0E1530001D8A4B7D74DEC0DF014
:102E40001200B1DE02EE93F013EED0F0070EF36E37
:102E5000E65003E0EE6EF32EFBD7EF6A02EE93F03E
:102E6000EE50FEE1ED52520EEE6EEF6A02EE9CF075
:102E7000540EEE6E580EEE6E540EEE6EEF6A2BECA4
:102E800011F075EC0EF0010EE1EC00F00301E16FC2
:102E9000E1530001D8A468EF17F017EC00F0050E1D
:102EA000F76EB40EF66E5FEC00F0070E176ED00EE4
:102EB0004EEC01F002EEFDF0050EF76EBE0EF66E62
:102EC00023EC02F0EF6A08EC12F04DEC0DF012006A
:102ED0000301DE6B500EE26F9C0EE36F00010301F5
:102EE000DF6B00010A0E0301DF5D0001D8B0A7EF20
:102EF00017F0E2C322F0E3C323F0E1C326F0276A10
:102F00002606000E275A27500A0DF3CF27F0265029
:102F10000A0DF3CF26F0F4502726265022262750FC
:102F200023220301DF512224F66E000E2320F76EC8
:102F3000A66AA68E0800F5CFDDF30001DDC3D2F24C
:102F400087EC08F00301DF2B0001D8A4CAD73A0EA2
:102F5000E8CFD2F287EC08F00301E107800E016EA2
:102F6000E1512DEC00F0E1530001D8A4B7D717ECE4
:102F700000F0050EF76EEA0EF66E5FEC00F0070E3D
:102F8000176ED00E4EEC01F04DEC0DF0120017EC68
:102F900000F0050EF76EF60EF66E5FEC00F0010E17
:102FA0000301DF6F0001060E0301DF5D0001D8B0F1
:102FB000EBEF17F092928982C80E4DEC01F09292DD
:102FC000899292908980C80E4DEC01F00301DF2BAD
:102FD0000001D8A4E7D717EC00F0060EF76E040E38
:102FE000F66E5FEC00F01DD6120017EC00F0060E36
:102FF000F76E120EF66E5FEC00F0030E176EE80E21
:103000004EEC01F0010E0301DF6F0001060E03011B
:10301000DF5D0001D8B020EF18F092928982030E94
:10302000176EE80E4EEC01F092928992010E176E27
:10303000F40E4EEC01F00301DF2B0001D8A4E5D71C
:1030400017EC00F0060EF76E1A0EF66E5FEC00F04D
:1030500011EF16F0120017EC00F0060EF76E280EB6
:10306000F66E5FEC00F0010E0301DF6F0001060E4B
:103070000301DF5D0001D8B04DEF18F09292898214
:10308000C80E4DEC01F092928992C80E4DEC01F001
:103090000301DF2B0001D8A4E9D7070E176ED00E6D
:1030A0004EEC01F082A2DFD717EC00F0060EF76EAF
:1030B000320EF66E5FEC00F011EF16F017EC00F038
:1030C000060EF76E400EF66E5FEC00F0010E030187
:1030D000DF6F0001060E0301DF5D0001D8B094EF41
:1030E00018F092928982C80E4DEC01F0929289926A
:1030F000C80E4DEC01F092928982C80E4DEC01F0A1
:1031000092928992C80E4DEC01F092908980C80E7F
:103110004DEC01F092908990C80E4DEC01F0030146
:10312000DF2B0001D8A4D5D7070E176ED00E4EECBA
:1031300001F082A2CBD717EC00F0060EF76E4A0E14
:0A314000F66E5FEC00F011EF16F0E0
:0A9C40004132374238334200FFD7AB
:020000040030CA
:0300010001181FC4
:020005008184F4
:060008000FC00FE00F40E5
:00000001FF
