:020000040000FA
:100000009A20850186018316053085008601061534
:100010008312A001A10146204E202008B300210830
:10002000B400AE20253084000430A9000030AC00BC
:100030006E202A202008B5002108B600AE20253009
:1000400084000430A9000430AC006E200928A0010F
:10005000A1010800A001A101A9200B30AB004120A3
:10006000061921140310A10DA00DAB0B2F28412060
:10007000061921140310A00CA10C0310A00CA10C54
:100080000800942086149420861008008316EC3013
:100090009F008511831206309F000800A201A30172
:1000A000A101A00103309F001F1B5C2800008511E7
:1000B000A10F5F28A00A6028851500005F2860282E
:1000C000A20F6828A30A23080439031954286B28AF
:1000D00069280000542806309F0008000008AA0084
:1000E000862006179A2006139A20AC117E20AC15A4
:1000F0007E20AC0A840AA90B6E2808002C08AA00EE
:10010000862086139A2086179A200800AA0E0430AB
:10011000AB000612AA0D0318061686169A20861240
:100120009A20AB0B89280800F9300000FF3E031D20
:100130009628080003300000FF3E031D9C2808009D
:100140000130B200B00BA228B10BA228B20BA2283A
:1001500008000517A0200513A0200800200E0F3965
:10016000F03EA500A507E23EA600323EA80020080A
:100170000F39A607A607A807E93EA700A707A70704
:10018000210E0F39A707A807A70DA80DA809A80DCC
:1001900021080F39A807A50D0730A4000A30A807C9
:1001A000A703031CCF28A707A603031CD328A60771
:1001B000A503031CD728A507A403031CDB280034D0
:02400E00703F01
:00000001FF
