:020000040000FA
:10000000A620850186018316053085008601061528
:100010008312A001A10152205A20BA202530840069
:100020000430A9000030AC007A20A001A1012120F9
:10003000BA20253084000430A9000430AC007A20B6
:100040000928B5204D200619A0154D2006192015A8
:100050004D200619A0144D20061920144D20061914
:10006000A1174D20061921174D200619A1164D2064
:10007000061921164D200619A1154D200619211526
:100080004D200619A1144D20061921140310A00CAF
:10009000A10C0310A00CA10C0800A0208614A02025
:1000A000861008008316EC309F00851183120630FD
:1000B0009F000800A201A301A101A00103309F003D
:1000C0001F1B682800008511A10F6B28A00A6C284F
:1000D000851500006B286C28A20F7428A30A23083A
:1000E0000439031960287728752800006028063035
:1000F0009F0008000008AA0092200617A6200613F9
:10010000A620AC118A20AC158A20AC0A840AA90B5F
:100110007A2808002C08AA0092208613A6208617A9
:10012000A6200800AA0E0430AB000612AA0D031880
:1001300006168616A6208612A620AB0B9528080068
:10014000F9300000FF3E031DA22808000330000024
:10015000FF3E031DA82808000130B200B00BAE28F6
:10016000B10BAE28B20BAE2808000517AC20051362
:10017000AC200800200E0F39F03EA500A507E23E96
:10018000A600323EA80020080F39A607A607A80738
:10019000E93EA700A707A707210E0F39A707A80761
:1001A000A70DA80DA809A80D21080F39A807A50DAE
:1001B0000730A4000A30A807A703031CDB28A70701
:1001C000A603031CDF28A607A503031CE328A50735
:0801D000A403031CE72800341E
:02400E00703F01
:00000001FF
