:020000040000FA
:100000008F2085018601831605308500860106153F
:100010008312A001A1013B204320A32025308400AE
:100020000430A9000030AC0063201F20A32025303D
:1000300084000430A9000430AC0063200928A0012A
:10004000A1019E200B30AB003620061921140310AD
:10005000A10DA00DAB0B2428362006192114031086
:10006000A00CA10C0310A00CA10C08008920861480
:100070008920861008008316EC309F0085118312BA
:1000800006309F000800A201A301A101A0010330D6
:100090009F001F1B512800008511A10F5428A00AA2
:1000A00055288515000054285528A20F5D28A30A5D
:1000B000230804390319492860285E2800004928CC
:1000C00006309F0008000008AA007B2006178F203A
:1000D00006138F20AC117320AC157320AC0A840A70
:1000E000A90B632808002C08AA007B2086138F2008
:1000F00086178F200800AA0E0430AB000612AA0D46
:100100000318061686168F2086128F20AB0B7E28CA
:100110000800F9300000FF3E031D8B280800033063
:100120000000FF3E031D912808000130B200B00B13
:100130009728B10B9728B20B972808000517952030
:10014000051395200800200E0F39F03EA500A507E5
:10015000E23EA600323EA80020080F39A607A607F7
:10016000A807E93EA700A707A707210E0F39A70791
:10017000A807A70DA80DA809A80D21080F39A807E1
:10018000A50D0730A4000A30A807A703031CC42844
:10019000A707A603031CC828A607A503031CCC2891
:0A01A000A507A403031CD0280034B7
:02400E00703F01
:00000001FF
