:020000040000FA
:02000000002CD2
:020008005E2C6C
:100020008207FC346034DA34F2346634B634BE34D9
:10003000E034FE34F634EE3427349C347A349E3483
:100040008E34EF0D6F100030EF07031D292810309C
:10005000EF007D080F398600EF1B3528840A6F1BDF
:100060003528840AEF1A3528840A0008F4007C0831
:10007000FC39FC0085007418FC147C0885000138EC
:100080008500FE398500FC107C088500F418FC14FE
:100090007C08850001388500FE398500FC107C084D
:1000A00085007419FC147C08850001388500FE3930
:1000B0008500FC107C088500F419FC147C08850080
:1000C00001388500FE398500FC107C088500741A13
:1000D000FC147C08850001388500FE398500FC1081
:1000E0007C088500F41AFC147C0885000138850022
:1000F000FE398500FC107C088500741BFC147C080C
:10010000850001388500FE398500FC107C088500DB
:10011000F41BFC147C08850001388500FE3985003D
:10012000FC107C0885000F307D056F04FD00860003
:100130000034840A800A0A300002031DA8288001C6
:100140008403800A06300002031DA92880010134BF
:100150008403003402300002031DB7280330840AF0
:100160000002031DB8288001840380010034840A42
:10017000800A0A300002031DC22880018403800A1D
:10018000C2288403003400086802031C0034031DE5
:100190000234840A00086902031C0034031D02347F
:1001A000840A00086A02031C0034031D0234840A16
:1001B00000086B02031C0034031D02340134600884
:1001C0006402031C0929031DF82861086502031C49
:1001D0000929031DF82862086602031C0929031D6A
:1001E000F82863086702031C0929031DF828003456
:1001F00060308400C320013C03190134031800342B
:1002000064308400C320013C03190034031C003413
:10021000013464308400C320013C03190034031806
:10022000013460308400C320013C03190134031CF5
:1002300001340034051E5E296F087505031D4C2925
:100240007608EF1F2A29403EF600C039031D00340E
:10025000F51780346F1F3629103E30397612F612AA
:10026000F6043039031D003475174034EF1E42295F
:10027000043E0C39F6117611F6040C39031D0034D6
:10028000F5162034013E03397610F610F6040339D2
:10029000031D003475161034EF1F5129F613761321
:1002A00000346F1F5629F61276120034EF1E5B29B8
:1002B000F61176110034F610761000346F087505CB
:1002C000031D7129EF1F66293F306F296F1F6A29AF
:1002D000CF306F29EF1E6E29F3306F29FC30F60501
:1002E00000347608EF1F7B29403EF600C039031D1D
:1002F0000034F51381346F1F8729103E3039761290
:10030000F612F6043039031D003475134134EF1E24
:100310009329043E0C397611F611F6040C39031DAD
:100320000034F5122134013E03397610F610F6043C
:100330000339031D0034751211346C308400992088
:10034000003E0319AC296A3084009920003E03194D
:10035000AC2968308400AA20DF20003E031DB229AA
:10036000FD110034FD1500340230F700F703031DC2
:10037000B6290000000083120313083081001A21FF
:10038000B800C0307505C03C0319D329303075055D
:10039000303C031DDC29EC01ED010630EE00243079
:1003A000840021200034EE0FD8290630EE009D2174
:1003B0002030840021200034EE0FE1290630EE00C9
:1003C0009D213808FF390319E729B901B90ABA0193
:1003D00075083039103C0319F729031CF929C0307E
:1003E00075050319F5293A17FA29BA17FA293A16A1
:1003F000FA29BA163908FF390319152AB90ABA1F9A
:10040000052A2830840021200034BA1E0B2A3030FF
:100410008400212000343A1E112A34308400212027
:1004200000342C30840021200034BA1F1A2A68308E
:1004300084003C2A3A1F202AEC01ED016A30252A6B
:10044000BA1E242A6230252A6630F7006E08063C60
:1004500003192D2A770884003A2A77088400751B2F
:10046000342AF51F3A2A362A99203A2A840384032B
:10047000AA203C2A8403840300081020F000840A88
:1004800000081020F100840A00081020F200840AFD
:1004900000081020F300BA1F4F2AEE1B71147030B1
:0804A000840021200034003427
:10080000203084008001840A841F022C9E30A000C6
:100810000A30A100FC30A2000A30A300B630A400C8
:100820001C30A500FC30A600CE30A7009C30A800EC
:100830000630A900FC30AA009C30AB00CE30AC00E2
:100840000A30AD00FC30AE00F630AF00CE30B00064
:100850000A30B100FC30B2002A30B300CE30B40010
:100860000A30B500FC30B6008E30B700BA17103031
:10087000EF0007309F008312031303018C00FD007B
:100880009800F0308B000630EE008316031303301F
:100890008100831203130430810083160313203078
:1008A0008C00FC308500073086002630980025300B
:1008B000990083120313000000005B2CFF00030863
:1008C000FE00831203138B185322831203130B1998
:1008D000B4210B11831203137E0883007F080900E3
:02400E00093F68
:00000001FF
