:0800000000000F308A000D2FF3
:101E0000002F900198018316980183128C018A019A
:101E10000000000000000000002F8B130C30BA27D8
:101E2000303090008E018F010C10101464000C18DB
:101E3000012F8C1E162F1A081010F03A0319212FAB
:101E4000012FA030C827C327A200A030C82722082E
:101E5000A13A0319442F2208A23A0319612F22083C
:101E6000A33A0319662F2208A43A0319942F2208D3
:101E7000FF3A0319012F2208F13A0319992F22087A
:101E8000F23A0319A02F232FC327A300EA27A900A2
:101E9000C327A4002408A90603195F2F23080317EA
:101EA0008D000313240803178C0083168C130C1564
:101EB000D5278C18592F0C1183120313EA27C82732
:101EC000232FC327A300EA27C827232FB027A32740
:101ED0000830A1002D308400C3278000840AA10BA4
:101EE0006C2F2D3084000430A100CD27031700088B
:101EF0008C00840A00088E00840A83168C170C1547
:101F0000D527000000000C1183128D0A0313A10BCA
:101F1000762F03130430A100DB27B527A80F912FDC
:101F2000A70FA10B8C2F232FB027A327DB27B527C3
:101F3000232F1430C8270F30C8271030C827232F6D
:101F4000C327BA27232F2708031DAF2FFC302807EC
:101F50000318AF2F2808083EA8000F30A70008007C
:101F6000C327A800C327A70008002608C8272508FC
:101F7000C8270800831603139900A630980083121F
:101F800098171816080064008C1EC32F1A08080042
:101F900064000C1EC82F99000800270803178F0043
:101FA0000313280803178D00080055308D00AA3050
:101FB0008D008C140800CD2783168C170C1400009C
:101FC000000083120C080313A60003170E08031366
:101FD000A5000800230803178D0083168C130C142A
:081FE00083120C080313080032
:02400E00723FFF
:00000001FF
