:020000040000FA
:0800000000001F308A000D2FE3
:103E0000002F900198018316980183128C018A017A
:103E10000000000000000000002F8B134030C4277A
:103E2000303090008E018F010C10101464000C18BB
:103E3000012F8C1E162F1A081010F03A0319212F8B
:103E4000012FA030D227CD27A200A030D2272208F0
:103E5000A13A0319442F2208A23A0319612F22081C
:103E6000A33A0319662F2208A43A03199E2F2208A9
:103E7000FF3A0319012F2208F13A0319A32F220850
:103E8000F23A0319AA2F232FCD27A300F427A90064
:103E9000CD27A4002408A90603195F2F23080317C0
:103EA0008D000313240803178C0083168C130C1544
:103EB000DF278C18592F0C1183120313F427D227F4
:103EC000232FCD27A300F427D227232FCD27A1000E
:103ED000BA272808A9002708AA00AD27E527260841
:103EE000AB002508AC00CD27A600CD27A5002608ED
:103EF0002B0603197C2F802F25082C060319932FDE
:103F0000D7270313250803178E000313260803176A
:103F10008C0083168C170C15DF27000000000C1195
:103F200083120313E527BF272908A8002A08A70042
:103F3000A80F9B2FA70FA10B692F232FBA27AD27FF
:103F4000E527BF27232F1430D2271430D227003083
:103F5000D227232FCD27C427232F2708031DB92FAE
:103F6000FC3028070318B92F2808083EA8001F3086
:103F7000A7000800CD27A800CD27A7000800260825
:103F8000D2272508D2270800831603139900A630EC
:103F90009800831298171816080064008C1ECD2F05
:103FA0001A08080064000C1ED22F99000800270888
:103FB00003178F000313280803178D0008005530DE
:103FC0008D00AA308D008C140800D72783168C171B
:103FD0000C140000000083120C080313A600031742
:103FE0000E080313A5000800230803178D0083168D
:0C3FF0008C130C1483120C08031308003F
:02400E00723FFF
:00000001FF
