:020000040000FA
:06000000000082EFFEF09B
:020000040001F9
:08FCF00000000000000000000C
:10FD000080EFFEF0F29E0C0E7BECFFF081ECFFF03A
:10FD1000F00AD8B48EEFFEF0CBEFFEF0A00E98EC18
:10FD2000FFF092ECFFF0226EA00E98ECFFF0225054
:10FD3000A10AD8B4D2EFFEF02250A20AD8B4E6EF5E
:10FD4000FEF02250A30AD8B4EEEFFEF02250A40A2F
:10FD5000D8B418EFFFF02250A50AD8B42FEFFFF067
:10FD60002250FF0AD8B4CBEFFEF02250F10AD8B4EB
:10FD700035EFFFF02250F20AD8B44FEFFFF02250D7
:10FD8000A60AD8B41EEFFFF02250A70AD8B4F4EFA9
:10FD9000FEF091EFFEF0CD6AAB6AAC6A9E6AAF6A84
:10FDA00078EFFEF06AECFFF0C4ECFFF0286E92EC06
:10FDB000FFF0246E281AD8B4E2EFFEF0CDECFFF08D
:10FDC000C4ECFFF098ECFFF091EFFEF06AECFFF06E
:10FDD000C4ECFFF098ECFFF091EFFEF06AECFFF05E
:10FDE00055ECFFF0F6EFFEF06AECFFF0000EEA6E65
:10FDF000290EE96E080E216E92ECFFF0EE6E212EB8
:10FE0000FCEFFEF0000EEA6E290EE96E080E216E80
:10FE10009EECFFF0EE50F56E0D00212E0AEFFFF084
:10FE20009EECFFF0ABECFFF022EFFFF091EFFEF065
:10FE30006AECFFF055ECFFF022EFFFF06AECFFF008
:10FE400022EFFFF09EECFFF0040E216EB2ECFFF00B
:10FE500074ECFFF0212E26EFFFF091EFFEF06AEC3C
:10FE6000FFF0BBECFFF091EFFEF0210E98ECFFF0FD
:10FE70000F0E98ECFFF0310E98ECFFF0000E98ECAE
:10FE8000FFF0000E98ECFFF0020E98ECFFF0000E71
:10FE900098ECFFF0030E98ECFFF091EFFEF092EC7F
:10FEA000FFF07BECFFF091EFFEF02750D8A469EF54
:10FEB000FFF02550D8A469EFFFF0F80E2624D8B043
:10FEC00069EFFFF02650F00F266EFC0E256E010E36
:10FED000276E120092ECFFF0266E92ECFFF0256E7A
:10FEE00092ECFFF0276E1200245098ECFFF02350A4
:10FEF00098ECFFF01200AF6EA60EAC6EAB8EAB8826
:10FF00001200300ECD6ECE6ACF6A9E90CD80040076
:10FF10009EB090EFFFF09EAA87EFFFF0AE50120068
:10FF2000CD90000C04009EAA92EFFFF0AE5012009C
:10FF300004009EA898EFFFF0AD6E12002750F86EF7
:10FF40002550F76E2650F66E1200550EA76EAA0EBB
:10FF5000A76EA6821200840EA66EA5ECFFF000002C
:10FF6000A6941200A66AA68E0900F550246E090018
:10FF7000F550236E12009EECFFF0940EA66EA5ECD9
:10FF8000FFF00000A69412002550AA6E2650A96E1C
:10FF9000A66AA69EA680A85012002550AA6E2650DA
:10FFA000A96E2450A86EA66AA69EA684A5ECFFF0B2
:0AFFB000A6B2D8EFFFF0A6941200ED
:020000040030CA
:08000000FFFAFEFEFFFFFBFF0B
:00000001FF
