:020000040000FA
:04000000A0EF3FF03E
:087F3800000000000000000041
:107F4000240EAC6E260EAF6E900EAB6E48D8C108F4
:107F5000F3E14A0EAD6E4B0EAD6E006A40D8F86E7E
:107F6000076E3DD8F76EA96E3AD8F66EA86E37D870
:107F7000016E012A00EE09F0F56E31D8EC6E012E8B
:107F8000FBD7006621D007AC03D0040E20D818D050
:107F900007AE04D00C00C40E1AD812D0940E17D815
:107FA0000A00080E056E00EE0AF0080E066EEE508E
:107FB000F56E0F00062EFBD7840E09D8052EF5D7D7
:107FC000A6B2FED7A694C7D74E0EAD6EC6D7A66E84
:107FD000550EA76EAA0EA76EA68200D01200060E3E
:107FE000026E036A046A9EAA03D0AE5000261200F5
:107FF000042EF9D7032EF6D7022EF3D7AC6A9CD7FE
:020000040030CA
:04000000FFFAFEFE07
:02000600FBFFFE
:00000001FF
