:020000040000FA
:040000000000302F9D
:060E54002A2F8A012B2F5A
:100E600000000000903098008316181598161F3067
:100E7000990083120330FA00213090000C1485276A
:100E8000EA3A031D572FFA015E2F8527F900E33A4E
:100E90000319602F7908EA3A03195E2F7908ED3AB1
:100EA000031D452FE43080270330FA008527900189
:100EB00098018316980183128C012B2FEB307E2F23
:100EC0008527F6008527F5008527F100FB0085279B
:100ED000F300F2012030840085278000F207840AA5
:100EE000FB0B6C2F72087306E830031D7E2FE73072
:100EF000802797270038E4300319E5308027452FF5
:100F000064000C1E802F9900080064007A08031901
:100F1000932F0C1C932F1010FA0B8F2F00340C10F2
:100F20000B308F0010148C1E852F1A0808007508CE
:100F3000F7007608F800FB010230F40071087B022C
:100F4000031801347B08203E840021307802031707
:100F500083160319B52F8C178301073078022A30C6
:100F6000031977020318F72FB72F8C138301770823
:100F700003178D0003137808031DCC2F043077026C
:100F80000318CC2F031783168C1FC92F83122C3004
:100F90008D0783010730CD2F780803178F000008D5
:100FA0008E00840A00088C0083160C1555308D00C5
:100FB000AA308D008C1400000000830164000D1E17
:100FC000DE2F0D12831603170C110C140000000005
:100FD0008312840300080E06031DF32F840A000801
:100FE0000C060319F72F8301F40B9E2F0034031313
:0C0FF0000230FB07F70A0319F80A9C2FD7
:084000000200010000000000B5
:02400E00363F3B
:00000001FF
