:10000000000000308A00FB288030A100FE30B620BE
:100010000130B6207530A7003030C628A401AA00F0
:10002000AB01A01124080319A0150530A300273047
:10003000A900103027200330A900E8302720A901AB
:1000400064302720A9010A3027202A082E28A8007A
:100050002B08A7002A08A600DA202608A600A3037A
:100060000319A011240803193828230203180800D3
:100070002608031DA011A0190800303EB628AD00C7
:1000800008138813831608138813F0308805831229
:100090002D08A01869283E30A7008030C6203330D4
:1000A000AC007E201330A7008830C6207E2064304C
:1000B000C5207E206430C5202230AC007E20283050
:1000C00068200C30682006306820A0142D086928AC
:1000D0002014AC00201C77288813033C031C7C28C8
:1000E0007C200530A700DC30C62003140800201453
:1000F000FE3C03198B288817AC0E201C2010081713
:10010000F03088052C080F3988040813AC0E20182D
:100110007E283230C5202D08F62898181812181697
:100120002208A6002508A700A801A9019728982859
:1001300000008C1AB328FF30A807031CA907031C72
:10014000A607031CA707031CF628280F9628290FCB
:1001500097283230A8000030A90098289818181263
:1001600018168C1EB1281A080314F628A11B3F2864
:10017000A901A800FF30A807031CA907031CF62843
:100180000330A700DF30C620BA28A701E83EA6004A
:10019000A709FC30031CCF28A6070318CC28A60704
:1001A0000000A70FCC282618D528A61CD9280000A7
:1001B000D9280800AB01AA011030AC00270DAA0D08
:1001C000AB0D2808AA022908031C290FAB0203184B
:1001D000F0282808AA0729080318290FAB070310DD
:1001E000A60DA70DAC0BDE282608F6288313831274
:1001F0000313000008008316063099002030980091
:10020000831290309800A0010330A500E830A200CE
:100210008A018D208A110A12031C1929AF0080302F
:10022000A1002F088A010E2020308A013F208A0178
:1002300004298A01042054308A013F2049308A0170
:100240003F204D308A013F2045308A013F20443015
:100250008A013F2020308A013F204F308A013F2011
:1002600055308A013F2054308A013F200730A900D1
:0A027000D0308A01B9208A01042968
:02400E00313F40
:00000001FF
